:1000000010E0A0E6B0E0E2EAFDE103C0C895319659
:100010000D92AA38B107D1F720E0AAE8B0E001C0FC
:100020001D92A43BB207E1F7CBD77FD763E084E60C
:1000300090E0E1D1BDD761E087E890E079C78AE838
:1000400090E083CA8AE890E083CA8AE890E083CA95
:1000500081E090E00895CF93DF93C82FD92F862FAA
:10006000972F8130910529F18230910591F0892BEC
:1000700031F5698170E0888140E050E090E093D0F4
:100080006A8170E0888141E050E090E0DF91CF919B
:100090008AC0698170E0888140E050E090E083D0C0
:1000A0006A8170E0888140E050E090E0DF91CF917C
:1000B0007AC0698170E0888141E050E0EFCF81E053
:1000C00090E0DF91CF910895282F392F842F952F1D
:1000D00081309105C1F0892B99F42230310509F462
:1000E0004BC060F5232B09F452C081E090E001C0C1
:1000F000880F6A95EAF7809597B3892387BB10C06C
:1001000081E090E008952230310531F160F4232B35
:1001100059F101C0880F6A95EAF797B3892B87BB1D
:1001200080E090E008952330310551F701C0880F39
:100130006A95EAF791B3892B81BBF2CF81E090E019
:100140002330310579F501C0880F6A95EAF780956B
:1001500091B3892381BBE4CF01C0880F6A95EAF788
:1001600094B3892B84BBDCCF01C0880F6A95EAF772
:100170009AB3892B8ABBD4CF81E090E001C0880F6D
:100180006A95EAF7809594B3892384BBC9CF81E04F
:1001900090E001C0880F6A95EAF780959AB38923A9
:1001A0008ABBBECF0895282F392F842F952F8130F9
:1001B0009105C1F0892B99F42230310509F44BC027
:1001C00060F5232B09F452C081E090E001C0880F54
:1001D0006A95EAF7809598B3892388BB10C081E0BF
:1001E00090E008952230310531F160F4232B59F16C
:1001F00001C0880F6A95EAF798B3892B88BB80E025
:1002000090E008952330310551F701C0880F6A95B9
:10021000EAF792B3892B82BBF2CF81E090E02330E2
:10022000310579F501C0880F6A95EAF7809592B398
:10023000892382BBE4CF01C0880F6A95EAF795B3A2
:10024000892B85BBDCCF01C0880F6A95EAF79BB389
:10025000892B8BBBD4CF81E090E001C0880F6A95D9
:10026000EAF7809595B3892385BBC9CF81E090E0FB
:1002700001C0880F6A95EAF780959BB389238BBBF1
:10028000BECF0895282F392FE42FF52F22303105C6
:10029000B1F080F4232BA9F086B390E002C09595CD
:1002A00087956A95E2F7817099279183808380E032
:1002B00090E008952330310531F480B3EECF83B35D
:1002C000ECCF89B3EACF81E090E00895282F392F51
:1002D000862F972F089790F42230310591F038F54A
:1002E000232BD9F021E030E001C0220F6A95EAF714
:1002F00088B3822788BB80E090E0089581E090E099
:10030000089521E030E001C0220F6A95EAF785B335
:10031000822785BB80E090E0089521E030E001C0B5
:10032000220F6A95EAF78BB382278BBBE4CF233089
:10033000310521F721E030E001C0220F6A95EAF78C
:1003400082B3822782BBD7CF282F392F21153105C1
:1003500021F46ABB80E090E008952130310549F036
:100360002230310561F02330310539F081E090E031
:10037000089567BB80E090E0089561BBEBCF64BB5C
:10038000E9CF282F392F2230310571F030F4232B9B
:1003900069F068BB80E090E008952330310541F4B6
:1003A00062BB80E090E0089565BBF4CF6BBBF2CFF9
:1003B00081E090E00895282F392FE62FF72F223083
:1003C000310581F038F4232B81F086B3808380E0FF
:1003D00090E008952330310559F480B3808380E0A4
:1003E00090E0089583B38083F2CF89B38083EFCF09
:1003F00081E090E008950F931F93CF93DF93C82F70
:10040000D92F162F81E090E02097B1F098D21115E6
:1004100099F0612F70E0062F172F000F111F000FAA
:10042000111F060F171F0C0F1D1F8C2F9D2FF5D4AA
:1004300025960C171D07C9F7DF91CF911F910F91DA
:1004400008950F931F93CF93DF93C82FD92F162FA3
:1004500081E090E02097E1F09AD48FE790E026D4F5
:1004600060E082E04AD4111599F0612F70E0062F08
:10047000172F000F111F000F111F060F171F0C0F52
:100480001D1F8C2F9D2FC9D425960C171D07C9F74A
:10049000DF91CF911F910F9108950F931F93CF93E9
:1004A000DF93C82FD92F162F81E090E02097E1F03D
:1004B0006ED488E790E0FAD360E082E01ED4111594
:1004C00099F0612F70E0062F172F000F111F000FFA
:1004D000111F060F171F0C0F1D1F8C2F9D2F9DD452
:1004E00025960C171D07C9F7DF91CF911F910F912A
:1004F00008950F931F93CF93DF93C82FD92F162FF3
:1005000081E090E02097E1F042D483E790E0CED301
:1005100060E082E0F2D3111599F0612F70E0062FB0
:10052000172F000F111F000F111F060F171F0C0FA1
:100530001D1F8C2F9D2F71D425960C171D07C9F7F1
:10054000DF91CF911F910F9108958BB780628BBF80
:1005500040E050E062E070E081E090E0B5DD40E036
:1005600050E062E070E081E090E01DDE84B78F7BB8
:1005700084BF0895282F392F822F932F0597039733
:1005800068F43BB781E090E001C0880F2A95EAF754
:10059000809583238BBF80E090E0089581E090E018
:1005A0000895282F392F822F932F0597039778F4DA
:1005B0008BB741E050E0642F752F02C0660F771FA4
:1005C0002A95E2F7862B8BBF80E090E0089581E0CA
:1005D00090E00895282F392F862F972F482F592FD5
:1005E0004650510942305105A0F0059719F081E0BD
:1005F00090E0089522303105C1F123303105B9F77B
:1006000085B78F7D85BF85B7806285BF80E090E02C
:1006100008952230310509F44EC070F5232BC1F046
:1006200045B721E030E0622F732F082E01C0660F1E
:100630000A94EAF7462B45BF45B7019601C0220F41
:100640008A95EAF72095242325BF80E090E008955D
:1006500065B721E030E0422F532F082E01C0440F30
:100660000A94EAF740954623E6CF85B7806285BFB6
:1006700085B7806285BFCACF2330310509F0B7CF77
:1006800065B741E050E0242F352F082E01C0220F1E
:100690000A94EAF72095262325BF25B70196642FF3
:1006A000752F02C0660F771F8A95E2F7862F972F66
:1006B000822B85BFABCF45B721E030E0622F732F8F
:1006C000082E01C0660F0A94EAF7462B45BF45B7CE
:1006D0000196622F732F02C0660F771F8A95E2F78B
:1006E000862F972F842B85BF91CF9AB721E030E0DA
:1006F00001C0220F8A95EAF7922B9ABF0895282FFE
:10070000E62FF72F309769F09AB7892F90E002C053
:10071000959587952A95E2F78170808380E090E037
:10072000089581E090E00895282F392F862F972F84
:100730002115310579F086309105B1F087309105AA
:1007400061F0059739F4309391002093900080E098
:1007500090E0089581E090E0089530938F00209319
:100760008E0080E090E0089530938D0020938C00FF
:10077000EECF1F920F920FB60F9211242F933F933B
:100780004F935F936F937F938F939F93AF93BF9399
:10079000EF93FF93E0918C00F0918D00309721F062
:1007A00009958AB780648ABFFF91EF91BF91AF919D
:1007B0009F918F917F916F915F914F913F912F9179
:1007C0000F900FBE0F901F9018951F920F920FB6AB
:1007D0000F9211242F933F934F935F936F937F93C7
:1007E0008F939F93AF93BF93EF93FF93E0918E000E
:1007F000F0918F00309721F009958AB780628ABF07
:10080000FF91EF91BF91AF919F918F917F916F91E8
:100810005F914F913F912F910F900FBE0F901F90BE
:1008200018951F920F920FB60F9211242F933F939A
:100830004F935F936F937F938F939F93AF93BF93E8
:10084000EF93FF93E0919000F0919100309721F0A9
:1008500009958AB780688ABFFF91EF91BF91AF91E8
:100860009F918F917F916F915F914F913F912F91C8
:100870000F900FBE0F901F9018958FB780688FBF95
:1008800008958FB78F778FBF089581E090E0089526
:1008900081E090E0089581E090E0089581E090E0AB
:1008A000089581E090E0089581E090E00895CF936D
:1008B000C82F40E050E061E070E081E090E073DC40
:1008C00040E050E062E070E081E090E06CDC8C2F72
:1008D000807F8BBB41E050E063E070E081E090E01E
:1008E00062DC2AE12A95F1F700C040E050E063E0C5
:1008F00070E081E090E057DC8AE18A95F1F700C072
:10090000C295C07FCBBB41E050E063E070E081E086
:1009100090E049DC2AE12A95F1F700C040E050E080
:1009200063E070E081E090E03EDC2AE12A95F1F797
:1009300000C025E32A95F1F70000CF9108958FE0DC
:1009400097E20197F1F700C0000041E050E064E059
:1009500070E080E090E0B8DB41E050E065E070E0FE
:1009600080E090E0B1DB41E050E066E070E080E0E4
:1009700090E0AADB41E050E067E070E080E090E0CA
:10098000A3DB41E050E061E070E081E090E09CDBBF
:1009900041E050E062E070E081E090E095DB41E012
:1009A00050E063E070E081E090E08EDB82E07FDF8A
:1009B00095E39A95F1F7000088E279DF25E32A951F
:1009C000F1F700008CE073DF85E38A95F1F7000012
:1009D00081E06DDF95E89A95F1F7000086E067DF2A
:1009E00025E32A95F1F700000895CF93C82F41E041
:1009F00050E061E070E081E090E0D5DB40E050E065
:100A000062E070E081E090E0CEDB8C2F807F8BBBDA
:100A100041E050E063E070E081E090E0C4DB2AE177
:100A20002A95F1F700C040E050E063E070E081E01B
:100A300090E0B9DB8AE18A95F1F700C0C295C07FEA
:100A4000CBBB41E050E063E070E081E090E0ABDBE5
:100A50002AE12A95F1F700C040E050E063E070E041
:100A600081E090E0A0DB2AE12A95F1F700C025E3C0
:100A70002A95F1F70000CF9108952F923F924F925F
:100A80005F926F927F928F929F92AF92BF92CF921E
:100A9000DF92EF92FF920F931F93CF93DF93CDB727
:100AA000DEB760970FB6F894DEBF0FBECDBF6B8385
:100AB0007C838D839E83A0E06FD709F4DAC081E048
:100AC0008F8719821A82412C512C612C712C80E065
:100AD000232E852C542E322E942C452E888B2F8538
:100AE000388949815A81692D782D862D972D02E00C
:100AF00031D7AF84B888C980DA80E92CF82C062D6C
:100B0000172D41D701E026D729833A83642E752E0D
:100B1000862E972E88879F839AE0A92EB12CC12C10
:100B2000D12CE12CF12C00E010E0232D322D452DAD
:100B3000542D6B817C818D819E81C6D6A980BA801F
:100B4000C62CD72CE82CF92C08851F811CD72F87A1
:100B5000388B49835A83962E872E682E792E3F82B2
:100B6000288659864A868B818B878C818C878D81DC
:100B70008D878E818E872AE0A22EB12CC12CD12C9C
:100B8000E12CF12C00E010E0232D322D452D542DC9
:100B90006B857C858D859E8599D6322E232E542E8D
:100BA000452E6B837C838D839E832F813885498579
:100BB0005A856B857C858D859E85AAE0EDD608F0EB
:100BC0008ECF8889492C582C8F832F85382F4981C7
:100BD0005A81692D782D862D972DA1E0DDD609F457
:100BE00062C0342E252E8AE0A82EB12CC12CD12C27
:100BF000E12CF12C00E010E02F853F81432D522D98
:100C0000642D752D862D972D5FD680E3820FEDDE46
:100C1000882E992E2F853F81432D522D642D752DC1
:100C2000862D972D53D62F873F83342E252E462E83
:100C3000572E682E792EA1E0AFD6A9F6882D992DD2
:100C400060960FB6F894DEBF0FBECDBFDF91CF9197
:100C50001F910F91FF90EF90DF90CF90BF90AF90DA
:100C60009F908F907F906F905F904F903F902F90CC
:100C7000089580E360960FB6F894DEBF0FBECDBF37
:100C8000DF91CF911F910F91FF90EF90DF90CF9068
:100C9000BF90AF909F908F907F906F905F904F909C
:100CA0003F902F90A2CE812C912CC8CF0F931F93F1
:100CB000CF93082F192F01151105A9F0E02FF12F5F
:100CC00080818115B9F0C0E090DE282FCF5FE02F42
:100CD000F12FEC0FF11D80818111F6CF822FCF9182
:100CE0001F910F91089521E090E0822FCF911F91E5
:100CF0000F91089520E090E0F1CF811541F081300F
:100D000019F082E090E0089580EC860FD0CD80E865
:100D1000860FCDCDDF92EF92FF920F931F93CF936B
:100D2000DF93C82FD92FF62EE42ED22E2097E9F08C
:100D300088E0860F880F880F880FB9DD0C2F1D2FD4
:100D4000085F1F4F899151DEC017D107D9F7E11411
:100D5000B1F081E0E816B9F08F2DDF91CF911F91AE
:100D60000F91FF90EF90DF9040CE81E090E0DF9117
:100D7000CF911F910F91FF90EF90DF90089580E841
:100D80008D0D95DDE9CF80EC8D0D91DDE5CF40E057
:100D900050E061E070E081E090E005DA40E050E092
:100DA00062E070E081E090E0FED91BBA41E050E0E3
:100DB00063E070E081E090E0F6D92AE12A95F1F74E
:100DC00000C040E050E063E070E081E090E0EBD9EB
:100DD0008AE18A95F1F700C080E18BBB41E050E0E9
:100DE00063E070E081E090E0DED92AE12A95F1F736
:100DF00000C040E050E063E070E081E090E0D3D9D3
:100E00002AE12A95F1F700C025E32A95F1F70000C1
:100E100025E82A95F1F700000895CF93DF93C82FB6
:100E2000D92F2097F1F0888186FB442740F9682F5D
:100E3000669566956695677070E0877050E090E003
:100E400043D9888187FB442740F950E0682F669595
:100E500066956695677070E0877090E0DF91CF913E
:100E6000A2C981E090E0DF91CF910895E82FF92F9A
:100E7000309791F081819281009789F0019761F418
:100E80008081682F669566956695677070E08770BB
:100E900041E050E090E087C981E090E008958081D2
:100EA000682F669566956695677070E0877040E07C
:100EB00050E090E078C9E82FF92F309791F08181C8
:100EC0009281009789F0019761F48081682F66957F
:100ED00066956695677070E0877040E050E090E03E
:100EE00062C981E090E008958081682F66956695DB
:100EF0006695677070E0877041E050E090E053C9FC
:100F0000E82FF92F309771F081819281029750F488
:100F10008081682F669566956695677070E087702A
:100F200090E0D4C981E090E0089508D0AEDC90C88C
:100F3000613019F081E090E008952BC241E050E06B
:100F400065E070E083E090E0BFC8CF93DF93C62FE9
:100F5000D72F682F70E080E090E029D6262F372F1A
:100F6000482F592F60E070E084EB92E421D52DE604
:100F70003CE147EA5FE3AAD6262F372F482F592FA7
:100F800060E070E086E993E413D5E5D5C430D1057F
:100F900051F0259719F0DF91CF910895862F972F63
:100FA000DF91CF9141C0862F972FDF91CF9141C024
:100FB0000ED025D070D061DCC8DA80E090E00895D2
:100FC000E9D280E090E0089581E090E0089583B751
:100FD0008F7B83BF83B7877F83BF80E882BF89B75A
:100FE0008E7F89BF83B7887F83BF83B7816083BFCC
:100FF000089582BF08958CBF089582B708958FB574
:101000008C7F8FBD8EB5982F977E9EBD1DBC1CBC5E
:1010100099B79B7F99BF807E81608EBD0895282FF0
:10102000392F3DBD2CBD0895282F392F3BBD2ABD3A
:101030000895282F392F39BD28BD0895282F392F1D
:1010400037BD26BD08958CB59DB508958EB58064D5
:101050008EBD89B7806289BF0895811559F08130AE
:1010600031F48EB580648EBD80E090E0089581E01B
:1010700090E008958EB58F7B8EBD80E090E008955E
:1010800089B7806289BF089589B78F7D89BF089528
:1010900086B597B5089585B5982F977B95BD90E84F
:1010A00094BD99B79F7B99BF807B836085BD089570
:1010B00084BD089583BD089584B5089581B5887F62
:1010C00081BD81B5866081BD089581B5886081BD8F
:1010D000089581B5886181BD11BC0895282F392FED
:1010E0002115310559F0E62FF0E0EE0FFF1FE05714
:1010F000FF4F3183208380E090E0089581E090E00D
:1011000008951F920F920FB60F9211242F933F93C1
:101110004F935F936F937F938F939F93AF93BF93FF
:10112000EF93FF93E0919800F0919900309709F0C8
:101130000995FF91EF91BF91AF919F918F917F9111
:101140006F915F914F913F912F910F900FBE0F9034
:101150001F9018951F920F920FB60F9211242F9384
:101160003F934F935F936F937F938F939F93AF932F
:10117000BF93EF93FF93E0919A00F0919B0030971B
:1011800009F00995FF91EF91BF91AF919F918F91D8
:101190007F916F915F914F913F912F910F900FBE73
:1011A0000F901F9018951F920F920FB60F92112457
:1011B0002F933F934F935F936F937F938F939F935F
:1011C000AF93BF93EF93FF93E0919C00F0919D004C
:1011D000309709F00995FF91EF91BF91AF919F91E1
:1011E0008F917F916F915F914F913F912F910F90D0
:1011F0000FBE0F901F9018951F920F920FB60F926F
:1012000011242F933F934F935F936F937F938F930B
:101210009F93AF93BF93EF93FF93E0919E00F09164
:101220009F00309709F00995FF91EF91BF91AF9121
:101230009F918F917F916F915F914F913F912F91EE
:101240000F900FBE0F901F9018951F920F920FB620
:101250000F9211242F933F934F935F936F937F933C
:101260008F939F93AF93BF93EF93FF93E091A00071
:10127000F091A100309709F00995FF91EF91BF918E
:10128000AF919F918F917F916F915F914F913F911E
:101290002F910F900FBE0F901F9018951F920F92D5
:1012A0000FB60F9211242F933F934F935F936F9339
:1012B0007F938F939F93AF93BF93EF93FF93E091AF
:1012C000A200F091A300309709F00995FF91EF91EA
:1012D000BF91AF919F918F917F916F915F914F914E
:1012E0003F912F910F900FBE0F901F9018951F9256
:1012F0000F920FB60F9211242F933F934F935F934A
:101300006F937F938F939F93AF93BF93EF93FF93CD
:10131000E091A400F091A500309709F00995FF91A4
:10132000EF91BF91AF919F918F917F916F915F915D
:101330004F913F912F910F900FBE0F901F901895D6
:101340001F920F920FB60F9211242F933F934F933A
:101350005F936F937F938F939F93AF93BF93EF931D
:10136000FF93E091A600F091A700309709F009954E
:10137000FF91EF91BF91AF919F918F917F916F916D
:101380005F914F913F912F910F900FBE0F901F9043
:101390001895CF93DF93C82FD92F209791F188818B
:1013A000682F669566956695677070E0877041E076
:1013B00050E090E089D68981682F6695669566959C
:1013C000677070E0877040E050E090E07DD68881E3
:1013D000682F669566956695677070E0877040E047
:1013E00050E090E0E0D68981682F66956695669515
:1013F000677070E0877040E050E090E0DF91CF913F
:10140000D2C681E090E0DF91CF910895AF92BF9274
:10141000CF92DF92EF92FF920F931F93CF93DF93C0
:1014200000D0CDB7DEB7E82EF92EA62EB72E1A8241
:10143000198201E010E0E114F10409F477C0EE2D07
:10144000FF2D8081682F669566956695677070E0C0
:10145000877041E050E090E0A6D6FAE1FA95F1F706
:1014600000C0EE2DFF2D8081682F669566956695EC
:10147000677070E0877040E050E090E094D6082FED
:10148000192F89819A81892BC9F48C2F9D2F019660
:10149000C82ED92EEE2DFF2D8181682F6695669579
:1014A0006695677070E087704C2D5D2D90E0EAD6F0
:1014B000082F192F29813A81232B61F380E090E0D6
:1014C000AEDD89819A810197D1F48C2F9D2F0196F1
:1014D000C82ED92EEE2DFF2D8181682F6695669539
:1014E0006695677070E087704C2D5D2D90E0CAD6D0
:1014F000082F192F29813A812130310559F3C8DD90
:10150000682F792F80E090E052D320E030E040E077
:101510005EE3DCD323E333E349E652E4B3D21BD3E7
:10152000862F972FEA2DFB2D91838083802F912F7B
:101530000F900F90DF91CF911F910F91FF90EF903F
:10154000DF90CF90BF90AF90089581E090E0089534
:1015500081E090E00895E82FF92F309749F08081DD
:101560009181009741F08130910569F0029739F03F
:1015700081E090E0089563E084E690E062C763E074
:1015800084E690E0B6C763E084E690E086C781E039
:1015900090E008958BB1982F9D7F9BB910BC97E682
:1015A00099B990B5906890BD90B59F7B90BD90B56E
:1015B0009F7E90BD90B59F7D90BD90B5977F90BD6B
:1015C00090B59D7F90BD90B59B7F90BD9AB1292F1E
:1015D0002B7F2AB920B52E7F20BD93709AB98C7FBE
:1015E0008BB908959091B30091110DC05D9905C01C
:1015F00083E090E01092B30008958CB980E090E011
:101600001092B300089582E090E00895E82FF92F3A
:10161000309791F08091B30081110BC083E090E08E
:101620005F9B04C08CB1808380E090E01092B30097
:10163000089582E090E0089581E090E00895E82F19
:10164000F92F3097E9F080818115D1F09091B300A6
:10165000911519F082E090E0089531969BB1907257
:10166000911105C01092B30083E090E008958CB909
:1016700081918111F5CF1092B30080E090E0089540
:1016800081E090E00895CF92DF92EF92FF92E82FF1
:10169000F92FC42ED52EE62EF72E309769F1C114FE
:1016A000D104E104F10441F18091B300811539F0D6
:1016B00082E090E0FF90EF90DF90CF90089580E07F
:1016C00090E0A0E0B0E05F9909C01092B30083E021
:1016D00090E0FF90EF90DF90CF9008952CB1219390
:1016E0000196A11DB11DC816D906EA06FB0639F000
:1016F000309749F71092B30081E090E0DBCF109271
:10170000B30080E090E0D6CFE82FF92F862F972FF7
:101710002091B30021111AC00097A9F0309799F0D9
:1017200021E02093B3009093B0008093AF00F0933A
:10173000A900E093A8001092AE0080818CB9579A5E
:1017400080E090E0089581E090E0089582E090E0EC
:101750000895282F392F842F952F4091B3004111E0
:101760001DC021153105B9F00097A9F041E0409363
:10177000B3009093B2008093B1003093AB002093FC
:10178000AA006093AC007093AD001092AE00579A1F
:1017900080E090E0089581E090E0089582E090E09C
:1017A00008951F920F920FB60F9211242F933F931B
:1017B0004F935F936F937F938F939F93AF93BF9359
:1017C000EF93FF938091AE009CB1E091AA00F0915D
:1017D000AB00E80FF11D90838F5F8093AE002091E6
:1017E000AC003091AD008217130651F41092AE0098
:1017F0001092B300E091B100F091B20009955798B2
:10180000FF91EF91BF91AF919F918F917F916F91D8
:101810005F914F913F912F910F900FBE0F901F90AE
:1018200018951F920F920FB60F9211242F933F938A
:101830004F935F936F937F938F939F93AF93BF93D8
:10184000EF93FF938091AE008F5F8093AE00E091A5
:10185000A800F091A900E80FF11D808181111BC043
:101860001092AE001092B300E091AF00F091B00082
:1018700009955698FF91EF91BF91AF919F918F91EC
:101880007F916F915F914F913F912F910F900FBE7C
:101890000F901F9018958CB9EDCFC6D3809362003E
:1018A000909363008AE890E050DE90936300809309
:1018B00062008AE890E04CDE9093630080936200BF
:1018C0008AE890E048DEEACF689401C0E8948F92FD
:1018D0009F92CF93DF9305D0DF91CF919F908F9010
:1018E000089588249924E82DF92DC82DD92DB0E428
:1018F0001B2EA82DB92D220F331F441F551F661F05
:10190000771F881F991F881C991CEE1FFF1FCC1F73
:10191000DD1FAA1FBB1F8A149B04EC05FD05CE0525
:10192000DF05A007B10748F08A189B08EC09FD09FC
:10193000CE09DF09A00BB10B21601A94E1F64EF439
:10194000282D392D4E2F5F2F6C2F7D2F8A2F9B2F07
:10195000000C0895002E083090F0982F872F762FD6
:10196000652F542F432F322F22270850F4CF220FF8
:10197000331F441F551F661F771F881F991F0A9525
:10198000B2F7002D08952A0D3B1D4C1D5D1D6E1DE7
:101990007F1D801F911F08950024A7FD00942A1722
:1019A00030054005500560057005800590050895D7
:1019B0005058BB27AA270ED04EC13FD130F044D19A
:1019C00020F031F49F3F11F41EF434C10EF4E09581
:1019D000E7FB2AC1E92F50D180F3BA1762077307DA
:1019E0008407950718F099F4C6F568C10EF4E095E0
:1019F0000B2EBA2FA02D062E622F202D072E732F0F
:101A0000302D082E842F402D092E952F502DFF2785
:101A1000591B99F0593F50F4503E68F11A16F040A6
:101A2000A22F232F342F4427585FF3CF46953795A5
:101A30002795A795F0405395C9F77EF41F16BA0B6A
:101A4000620B730B840BBAF09150A1F0FF0FBB1F18
:101A5000661F771F881FC2F70EC0BA0F621F731F61
:101A6000841F48F4879577956795B795F7959E3FBE
:101A700008F0AECF9395880F08F09927EE0F979551
:101A8000879508950CD0E7C0DFD040F0D6D030F075
:101A900021F45F3F19F0C8C0511111C1CBC0ECD087
:101AA00098F39923C9F35523B1F3951B550BBB2725
:101AB000AA2762177307840738F09F5F5F4F220FD2
:101AC000331F441FAA1FA9F334D00E2E3AF0E0E8CA
:101AD00031D091505040E695001CCAF72AD0FE2F15
:101AE00028D0660F771F881FBB1F261737074807A8
:101AF000AB07B0E809F0BB0B802D6E2F7F2FFF27BF
:101B000093585F4F2AF09E3F510568F08DC0D7C0B3
:101B10005F3FECF3983EDCF3869577956795B79534
:101B2000F7959F5FC9F7880F911D9695879597F94F
:101B30000895E1E0660F771F881FBB1F62177307C8
:101B40008407BA0720F0621B730B840BBA0BEE1FDD
:101B500088F7E095089598D088F09F5790F0B92FB6
:101B60009927B751A0F0D1F0660F771F881F991FF2
:101B70001AF0BA95C9F712C0B13081F09FD0B1E028
:101B800008959CC0672F782F8827B85F39F0B93F38
:101B9000CCF3869577956795B395D9F73EF49095F4
:101BA0008095709561957F4F8F4F9F4F0895E89472
:101BB00009C097FB3EF490958095709561957F4F95
:101BC0008F4F9F4F9923A9F0F92F96E9BB27939543
:101BD000F695879577956795B795F111F8CFFAF453
:101BE000BB0F11F460FF1BC06F5F7F4F8F4F9F4F84
:101BF00016C0882311F096E911C0772321F09EE8E2
:101C0000872F762F05C0662371F096E8862F70E047
:101C100060E02AF09A95660F771F881FDAF7880F21
:101C20009695879597F9089597F99F6780E870E0F2
:101C300060E008959FEF80EC089500240A94161642
:101C4000170618060906089500240A9412161306AA
:101C5000140605060895092E0394000C11F4882338
:101C600052F0BB0F40F4BF2B11F460FF04C06F5F54
:101C70007F4F8F4F9F4F089557FD9058440F551F2A
:101C800059F05F3F71F04795880F97FB991F61F0FE
:101C90009F3F79F087950895121613061406551F75
:101CA000F2CF4695F1DF08C0161617061806991FE1
:101CB000F1CF86957105610508940895E894BB27D6
:101CC00066277727862F972F97F908950AD0C3CFD5
:101CD000B4DF28F0B9DF18F0952309F0A5CFAACF1B
:101CE000EECFCADFA8F39923D9F35523C9F3950F93
:101CF00050E0551FAA27EE27FF27BB270024089492
:101D0000679520F4E20FF31FB41F0A1E220F331F42
:101D1000441FAA1F6695A9F7779530F4F30FB41FF7
:101D20000A1E121E08F46395330F441FAA1F221FB8
:101D3000769599F7879520F4B40F0A1E121E631F3B
:101D4000440FAA1F221F331F8695A9F7862F712DD6
:101D5000602D11249F5750408AF0E1F088234AF00B
:101D6000EE0FFF1FBB1F661F771F881F915050404B
:101D7000A9F79E3F510570F057CFA1CF5F3FECF31D
:101D8000983EDCF3869577956795B795F795E79537
:101D90009F5FC1F7FE2B880F911D9695879597F948
:021DA0000895A4
:101DA2006400010052010000007A010000005B01A2
:101DB2000000004175746F004D616E75616C0053D7
:0A1DC2007461727475700040330004
:00000001FF
