:1000000010E0A0E6B0E0EEE3F9E103C0C895319658
:100010000D92A637B107D1F720E0A6E7B0E001C006
:100020001D92AA39B207E1F761E083E790E088D535
:10003000C7D5CDD563E084E690E0D4D17EC581E01C
:1000400090E00895CF93DF93C82FD92F862F972F55
:100050008130910529F18230910591F0892B31F59C
:10006000698170E0888140E050E090E093D06A813F
:1000700070E0888141E050E090E0DF91CF918AC04C
:10008000698170E0888140E050E090E083D06A812F
:1000900070E0888140E050E090E0DF91CF917AC03D
:1000A000698170E0888141E050E0EFCF81E090E02D
:1000B000DF91CF910895282F392F842F952F8130EC
:1000C0009105C1F0892B99F42230310509F44BC018
:1000D00060F5232B09F452C081E090E001C0880F45
:1000E0006A95EAF7809597B3892387BB10C081E0B2
:1000F00090E008952230310531F160F4232B59F15D
:1001000001C0880F6A95EAF797B3892B87BB80E017
:1001100090E008952330310551F701C0880F6A95AA
:10012000EAF791B3892B81BBF2CF81E090E02330D5
:10013000310579F501C0880F6A95EAF7809591B38A
:10014000892381BBE4CF01C0880F6A95EAF794B395
:10015000892B84BBDCCF01C0880F6A95EAF79AB37C
:10016000892B8ABBD4CF81E090E001C0880F6A95CB
:10017000EAF7809594B3892384BBC9CF81E090E0EE
:1001800001C0880F6A95EAF780959AB389238ABBE4
:10019000BECF0895282F392F842F952F81309105B8
:1001A000C1F0892B99F42230310509F44BC060F578
:1001B000232B09F452C081E090E001C0880F6A95BA
:1001C000EAF7809598B3892388BB10C081E090E05E
:1001D00008952230310531F160F4232B59F101C02B
:1001E000880F6A95EAF798B3892B88BB80E090E086
:1001F00008952330310551F701C0880F6A95EAF759
:1002000092B3892B82BBF2CF81E090E0233031059D
:1002100079F501C0880F6A95EAF7809592B3892332
:1002200082BBE4CF01C0880F6A95EAF795B3892BAA
:1002300085BBDCCF01C0880F6A95EAF79BB3892B99
:100240008BBBD4CF81E090E001C0880F6A95EAF7BC
:10025000809595B3892385BBC9CF81E090E001C02B
:10026000880F6A95EAF780959BB389238BBBBECF35
:100270000895282F392FE42FF52F22303105B1F0C2
:1002800080F4232BA9F086B390E002C09595879562
:100290006A95E2F7817099279183808380E090E0EE
:1002A00008952330310531F480B3EECF83B3ECCF22
:1002B00089B3EACF81E090E00895282F392F862F67
:1002C000972F089790F42230310591F038F5232BC1
:1002D000D9F021E030E001C0220F6A95EAF788B337
:1002E000822788BB80E090E0089581E090E0089547
:1002F00021E030E001C0220F6A95EAF785B382273A
:1003000085BB80E090E0089521E030E001C0220F3D
:100310006A95EAF78BB382278BBBE4CF2330310594
:1003200021F721E030E001C0220F6A95EAF782B39D
:10033000822782BBD7CF282F392F2115310521F4F1
:100340006ABB80E090E008952130310549F0223009
:10035000310561F02330310539F081E090E00895F6
:1003600067BB80E090E0089561BBEBCF64BBE9CF51
:10037000282F392F2230310571F030F4232B69F00A
:1003800068BB80E090E008952330310541F462BB02
:1003900080E090E0089565BBF4CF6BBBF2CF81E0C5
:1003A00090E00895282F392FE62FF72F22303105BE
:1003B00081F038F4232B81F086B3808380E090E0D5
:1003C00008952330310559F480B3808380E090E0B4
:1003D000089583B38083F2CF89B38083EFCF81E028
:1003E00090E008950F931F93CF93DF93C82FD92FD9
:1003F000162F81E090E02097B1F086D0111599F08A
:10040000612F70E0062F172F000F111F000F111F13
:10041000060F171F0C0F1D1F8C2F9D2F06D325961F
:100420000C171D07C9F7DF91CF911F910F91089508
:100430008FB780688FBF08958FB78F778FBF08956C
:1004400081E090E0089581E090E0089581E090E0FF
:10045000089581E090E0089581E090E0089581E0C2
:1004600090E00895CF93C82F40E050E061E070E045
:1004700081E090E08FDE40E050E062E070E081E0FB
:1004800090E088DE8C2F807F8BBB41E050E063E002
:1004900070E081E090E07EDE8FEC97E00197F1F76D
:1004A00000C0000040E050E063E070E081E090E0D8
:1004B00071DEEFECF7E03197F1F700C00000C29574
:1004C000C07FCBBB41E050E063E070E081E090E0B2
:1004D00061DE8FEC97E00197F1F700C0000040E08B
:1004E00050E063E070E081E090E054DEEFECF7E094
:1004F0003197F1F700C00000EFECF7E03197F1F72A
:1005000000C00000CF9108952FEF89EF90E02150B7
:1005100080409040E1F700C0000041E050E064E01E
:1005200070E080E090E0C7DD41E050E065E070E021
:1005300080E090E0C0DD41E050E066E070E080E007
:1005400090E0B9DD41E050E067E070E080E090E0ED
:10055000B2DD41E050E061E070E081E090E0ABDDD1
:1005600041E050E062E070E081E090E0A4DD41E035
:1005700050E063E070E081E090E09DDD82E072DFBA
:10058000EFECF7E03197F1F700C0000088E26ADF96
:100590008FEC97E00197F1F700C000008CE062DF7C
:1005A000EFECF7E03197F1F700C0000081E05ADF8F
:1005B0008FEA96E30197F1F700C0000086E052DF72
:1005C000EFECF7E03197F1F700C000000895CF930A
:1005D000C82F41E050E061E070E081E090E0DADDBA
:1005E00040E050E062E070E081E090E0D3DD8C2FED
:1005F000807F8BBB41E050E063E070E081E090E001
:10060000C9DD8FEC97E00197F1F700C0000040E0F2
:1006100050E063E070E081E090E0BCDDEFECF7E0FB
:100620003197F1F700C00000C295C07FCBBB41E01D
:1006300050E063E070E081E090E0ACDD8FEC97E0AB
:100640000197F1F700C0000040E050E063E070E087
:1006500081E090E09FDDEFECF7E03197F1F700C02B
:100660000000EFECF7E03197F1F700C00000CF9108
:1006700008952F923F924F925F926F927F928F9246
:100680009F92AF92BF92CF92DF92EF92FF920F9321
:100690001F93CF93DF93CDB7DEB760970FB6F89473
:1006A000DEBF0FBECDBF6B837C838D839E83A0E0B6
:1006B00041D709F4DAC081E08F8719821A82412C70
:1006C000512C612C712C80E0232E852C542E322E3F
:1006D000942C452E888B2F85388949815A81692D24
:1006E000782D862D972D02E003D7AF84B888C98076
:1006F000DA80E92CF82C062D172D13D701E0F8D657
:1007000029833A83642E752E862E972E88879F83A1
:100710009AE0A92EB12CC12CD12CE12CF12C00E0B7
:1007200010E0232D322D452D542D6B817C818D8140
:100730009E8198D6A980BA80C62CD72CE82CF92C9B
:1007400008851F81EED62F87388B49835A83962ED2
:10075000872E682E792E3F82288659864A868B817D
:100760008B878C818C878D818D878E818E872AE007
:10077000A22EB12CC12CD12CE12CF12C00E010E0E8
:10078000232D322D452D542D6B857C858D859E85A1
:100790006BD6322E232E542E452E6B837C838D8375
:1007A0009E832F81388549855A856B857C858D850B
:1007B0009E85AAE0BFD608F08ECF8889492C582C98
:1007C0008F832F85382F49815A81692D782D862D69
:1007D000972DA1E0AFD609F462C0342E252E8AE011
:1007E000A82EB12CC12CD12CE12CF12C00E010E072
:1007F0002F853F81432D522D642D752D862D972DEC
:1008000031D680E3820FE3DE882E992E2F853F813B
:10081000432D522D642D752D862D972D25D62F878E
:100820003F83342E252E462E572E682E792EA1E09A
:1008300081D6A9F6882D992D60960FB6F894DEBF63
:100840000FBECDBFDF91CF911F910F91FF90EF9021
:10085000DF90CF90BF90AF909F908F907F906F90E0
:100860005F904F903F902F90089580E360960FB671
:10087000F894DEBF0FBECDBFDF91CF911F910F91D6
:10088000FF90EF90DF90CF90BF90AF909F908F90B0
:100890007F906F905F904F903F902F9098CE812CDB
:1008A000912CC8CF0F931F93CF93082F192F0115A9
:1008B0001105A9F0E02FF12F80818115B9F0C0E07A
:1008C00086DE282FCF5FE02FF12FEC0FF11D808106
:1008D0008111F6CF822FCF911F910F91089521E0C2
:1008E00090E0822FCF911F910F91089520E090E02A
:1008F000F1CF811541F0813019F082E090E0089548
:1009000080EC860FAFCD80E8860FACCDDF92EF9202
:10091000FF920F931F93CF93DF93C82FD92FF62EFB
:10092000E42ED22E2097E9F088E0860F880F880FFA
:10093000880F98DD0C2F1D2F085F1F4F899147DE10
:10094000C017D107D9F7E114B1F081E0E816B9F08A
:100950008F2DDF91CF911F910F91FF90EF90DF903E
:1009600036CE81E090E0DF91CF911F910F91FF9003
:10097000EF90DF90089580E88D0D74DDE9CF80EC75
:100980008D0D70DDE5CF40E050E061E070E081E08A
:1009900090E000DC40E050E062E070E081E090E058
:1009A000F9DB1BBA41E050E063E070E081E090E0E9
:1009B000F1DB8FEC97E00197F1F700C0000040E019
:1009C00050E063E070E081E090E0E4DBEFECF7E022
:1009D0003197F1F700C0000080E18BBB41E050E0AF
:1009E00063E070E081E090E0D5DB8FEC97E0019769
:1009F000F1F700C0000040E050E063E070E081E00B
:100A000090E0C8DBEFECF7E03197F1F700C00000B1
:100A1000EFECF7E03197F1F700C00000EFEAF6E302
:100A20003197F1F700C000000895CF93DF93C82FEE
:100A3000D92F2097F1F0888186FB442740F9682F51
:100A4000669566956695677070E0877050E090E0F7
:100A500032DB888187FB442740F950E0682F669598
:100A600066956695677070E0877090E0DF91CF9132
:100A700091CB81E090E0DF91CF910895E82FF92F9D
:100A8000309791F081819281009789F0019761F40C
:100A90008081682F669566956695677070E08770AF
:100AA00041E050E090E076CB81E090E008958081D5
:100AB000682F669566956695677070E0877040E070
:100AC00050E090E067CBE82FF92F309791F08181CB
:100AD0009281009789F0019761F48081682F669573
:100AE00066956695677070E0877040E050E090E032
:100AF00051CB81E090E008958081682F66956695DE
:100B00006695677070E0877041E050E090E042CBFE
:100B1000E82FF92F309771F081819281029750F47C
:100B20008081682F669566956695677070E087701E
:100B300090E0C3CB81E090E0089508D081DC7FCACB
:100B4000613019F081E090E0089527C241E050E063
:100B500065E070E083E090E0AECACF93DF93C62FEC
:100B6000D72F682F70E080E090E0EFD5262F372F49
:100B7000482F592F60E070E084EB92E4E7D42DE633
:100B80003CE147EA5FE370D6262F372F482F592FD5
:100B900060E070E086E993E4D9D4ABD5C430D105E8
:100BA00051F0259719F0DF91CF910895862F972F57
:100BB000DF91CF913DC0862F972FDF91CF913DC020
:100BC0000AD021D06CD034DC80E090E00895C1D20E
:100BD00080E090E0089583B78F7B83BF83B7877FE2
:100BE00083BF80E882BF89B78E7F89BF83B7887F44
:100BF00083BF83B7816083BF089582BF08958CBF90
:100C0000089582B708958FB58C7F8FBD8EB5982FCC
:100C1000977E9EBD1DBC1CBC99B79B7F99BF807EF3
:100C200081608EBD0895282F392F3DBD2CBD0895BC
:100C3000282F392F3BBD2ABD0895282F392F39BDC4
:100C400028BD0895282F392F37BD26BD08958CB5AE
:100C50009DB508958EB580648EBD89B7806289BFC9
:100C60000895811559F0813031F48EB580648EBDC0
:100C700080E090E0089581E090E008958EB58F7B4C
:100C80008EBD80E090E0089589B7806289BF0895A5
:100C900089B78F7D89BF089586B597B5089585B5C5
:100CA000982F977B95BD90E894BD99B79F7B99BF8E
:100CB000807B836085BD089584BD089583BD0895BC
:100CC00084B5089581B5887F81BD81B5866081BD79
:100CD000089581B5886081BD089581B5886181BD21
:100CE00011BC0895282F392F2115310559F0E62F11
:100CF000F0E0EE0FFF1FEA58FF4F3183208380E0C2
:100D000090E0089581E090E008951F920F920FB651
:100D10000F9211242F933F934F935F936F937F9381
:100D20008F939F93AF93BF93EF93FF93E0917E00D8
:100D3000F0917F00309709F00995FF91EF91BF91F5
:100D4000AF919F918F917F916F915F914F913F9163
:100D50002F910F900FBE0F901F9018951F920F921A
:100D60000FB60F9211242F933F934F935F936F937E
:100D70007F938F939F93AF93BF93EF93FF93E091F4
:100D80008000F0918100309709F00995FF91EF9173
:100D9000BF91AF919F918F917F916F915F914F9193
:100DA0003F912F910F900FBE0F901F9018951F929B
:100DB0000F920FB60F9211242F933F934F935F938F
:100DC0006F937F938F939F93AF93BF93EF93FF9313
:100DD000E0918200F0918300309709F00995FF912E
:100DE000EF91BF91AF919F918F917F916F915F91A3
:100DF0004F913F912F910F900FBE0F901F9018951C
:100E00001F920F920FB60F9211242F933F934F937F
:100E10005F936F937F938F939F93AF93BF93EF9362
:100E2000FF93E0918400F0918500309709F00995D7
:100E3000FF91EF91BF91AF919F918F917F916F91B2
:100E40005F914F913F912F910F900FBE0F901F9088
:100E500018951F920F920FB60F9211242F933F9364
:100E60004F935F936F937F938F939F93AF93BF93B2
:100E7000EF93FF93E0918600F0918700309709F09F
:100E80000995FF91EF91BF91AF919F918F917F91C4
:100E90006F915F914F913F912F910F900FBE0F90E7
:100EA0001F9018951F920F920FB60F9211242F9337
:100EB0003F934F935F936F937F938F939F93AF93E2
:100EC000BF93EF93FF93E0918800F09189003097F2
:100ED00009F00995FF91EF91BF91AF919F918F918B
:100EE0007F916F915F914F913F912F910F900FBE26
:100EF0000F901F9018951F920F920FB60F9211240A
:100F00002F933F934F935F936F937F938F939F9311
:100F1000AF93BF93EF93FF93E0918A00F0918B0022
:100F2000309709F00995FF91EF91BF91AF919F9193
:100F30008F917F916F915F914F913F912F910F9082
:100F40000FBE0F901F9018951F920F920FB60F9221
:100F500011242F933F934F935F936F937F938F93BE
:100F60009F93AF93BF93EF93FF93E0918C00F09129
:100F70008D00309709F00995FF91EF91BF91AF91E6
:100F80009F918F917F916F915F914F913F912F91A1
:100F90000F900FBE0F901F901895CF93DF93C82F1F
:100FA000D92F209791F18881682F6695669566956F
:100FB000677070E0877041E050E090E07CD88981F4
:100FC000682F669566956695677070E0877040E05B
:100FD00050E090E070D88881682F66956695669598
:100FE000677070E0877040E050E090E0D3D889816E
:100FF000682F669566956695677070E0877040E02B
:1010000050E090E0DF91CF91C5C881E090E0DF91A2
:10101000CF910895AF92BF92CF92DF92EF92FF925D
:101020000F931F93CF93DF9300D0CDB7DEB7E82E99
:10103000F92EA62EB72E1A82198201E010E0E114D3
:10104000F10409F477C0EE2DFF2D8081682F66959D
:1010500066956695677070E0877041E050E090E0BB
:1010600099D8FAE1FA95F1F700C0EE2DFF2D8081B5
:10107000682F669566956695677070E0877040E0AA
:1010800050E090E087D8082F192F89819A81892B09
:10109000C9F48C2F9D2F0196C82ED92EEE2DFF2D31
:1010A0008181682F669566956695677070E0877098
:1010B0004C2D5D2D90E0DDD8082F192F29813A8124
:1010C000232B61F380E090E0AEDD89819A81019766
:1010D000D1F48C2F9D2F0196C82ED92EEE2DFF2DE9
:1010E0008181682F669566956695677070E0877058
:1010F0004C2D5D2D90E0BDD8082F192F29813A8104
:101100002130310559F3C8DD682F792F80E090E058
:101110001CD320E030E040E05EE3A6D323E333E3DA
:1011200049E652E47DD2E5D2862F972FEA2DFB2D9A
:1011300091838083802F912F0F900F90DF91CF911B
:101140001F910F91FF90EF90DF90CF90BF90AF90E5
:1011500008958BB1982F9D7F9BB910BC97E699B9E4
:1011600090B5906890BD90B59F7B90BD90B59F7EE7
:1011700090BD90B59F7D90BD90B5977F90BD90B587
:101180009D7F90BD90B59B7F90BD9AB1292F2B7FFD
:101190002AB920B52E7F20BD93709AB98C7F8BB968
:1011A00008959091990091110DC05D9905C083E05B
:1011B00090E01092990008958CB980E090E0109230
:1011C0009900089582E090E00895E82FF92F309774
:1011D00091F08091990081110BC083E090E05F9BBA
:1011E00004C08CB1808380E090E010929900089553
:1011F00082E090E0089581E090E00895E82FF92FD3
:101200003097E9F080818115D1F090919900911586
:1012100019F082E090E0089531969BB1907291119F
:1012200005C01092990083E090E008958CB98191F7
:101230008111F5CF1092990080E090E0089581E04F
:1012400090E00895CF92DF92EF92FF92E82FF92F6E
:10125000C42ED52EE62EF72E309769F1C114D10495
:10126000E104F10441F180919900811539F082E0A7
:1012700090E0FF90EF90DF90CF90089580E090E0B5
:10128000A0E0B0E05F9909C01092990083E090E07F
:10129000FF90EF90DF90CF9008952CB121930196AD
:1012A000A11DB11DC816D906EA06FB0639F0309714
:1012B00049F71092990081E090E0DBCF10929900FD
:1012C00080E090E0D6CFE82FF92F862F972F20913E
:1012D000990021111AC00097A9F0309799F021E0E8
:1012E000209399009093960080939500F0938F003F
:1012F000E0938E001092940080818CB9579A80E020
:1013000090E0089581E090E0089582E090E00895F3
:10131000282F392F842F952F4091990041111DC0FE
:1013200021153105B9F00097A9F041E040939900EB
:1013300090939800809397003093910020939000B1
:10134000609392007093930010929400579A80E0FB
:1013500090E0089581E090E0089582E090E00895A3
:101360001F920F920FB60F9211242F933F934F931A
:101370005F936F937F938F939F93AF93BF93EF93FD
:10138000FF93809194009CB1E0919000F0919100C6
:10139000E80FF11D90838F5F80939400209192005D
:1013A000309193008217130651F41092940010921A
:1013B0009900E0919700F091980009955798FF9156
:1013C000EF91BF91AF919F918F917F916F915F91BD
:1013D0004F913F912F910F900FBE0F901F90189536
:1013E0001F920F920FB60F9211242F933F934F939A
:1013F0005F936F937F938F939F93AF93BF93EF937D
:10140000FF93809194008F5F80939400E0918E0011
:10141000F0918F00E80FF11D808181111BC01092A7
:10142000940010929900E0919500F0919600099532
:101430005698FF91EF91BF91AF919F918F917F91BE
:101440006F915F914F913F912F910F900FBE0F9031
:101450001F9018958CB9EDCFE7D5909363008093DA
:101460006200FFCF689401C0E8948F929F92CF935F
:10147000DF9305D0DF91CF919F908F9008958824BE
:101480009924E82DF92DC82DD92DB0E41B2EA82DB7
:10149000B92D220F331F441F551F661F771F881F4A
:1014A000991F881C991CEE1FFF1FCC1FDD1FAA1F50
:1014B000BB1F8A149B04EC05FD05CE05DF05A007C4
:1014C000B10748F08A189B08EC09FD09CE09DF092D
:1014D000A00BB10B21601A94E1F64EF4282D392DA2
:1014E0004E2F5F2F6C2F7D2F8A2F9B2F000C08957E
:1014F000002E083090F0982F872F762F652F542FCD
:10150000432F322F22270850F4CF220F331F441FBE
:10151000551F661F771F881F991F0A95B2F7002D68
:1015200008952A0D3B1D4C1D5D1D6E1D7F1D801FE6
:10153000911F08950024A7FD00942A173005400547
:101540005005600570058005900508955058BB272B
:10155000AA270ED04EC13FD130F044D120F031F453
:101560009F3F11F41EF434C10EF4E095E7FB2AC14D
:10157000E92F50D180F3BA176207730784079507E4
:1015800018F099F4C6F568C10EF4E0950B2EBA2F49
:10159000A02D062E622F202D072E732F302D082E02
:1015A000842F402D092E952F502DFF27591B99F080
:1015B000593F50F4503E68F11A16F040A22F232FE5
:1015C000342F4427585FF3CF469537952795A79535
:1015D000F0405395C9F77EF41F16BA0B620B730BDC
:1015E000840BBAF09150A1F0FF0FBB1F661F771F4D
:1015F000881FC2F70EC0BA0F621F731F841F48F402
:10160000879577956795B795F7959E3F08F0AECF8C
:101610009395880F08F09927EE0F97958795089571
:101620000CD0E7C0DFD040F0D6D030F021F45F3FDF
:1016300019F0C8C0511111C1CBC0ECD098F3992357
:10164000C9F35523B1F3951B550BBB27AA27621786
:101650007307840738F09F5F5F4F220F331F441FCB
:10166000AA1FA9F334D00E2E3AF0E0E831D0915001
:101670005040E695001CCAF72AD0FE2F28D0660FEE
:10168000771F881FBB1F261737074807AB07B0E82F
:1016900009F0BB0B802D6E2F7F2FFF2793585F4FD4
:1016A0002AF09E3F510568F08DC0D7C05F3FECF334
:1016B000983EDCF3869577956795B795F7959F5F8C
:1016C000C9F7880F911D9695879597F90895E1E0E0
:1016D000660F771F881FBB1F621773078407BA073F
:1016E00020F0621B730B840BBA0BEE1F88F7E0959A
:1016F000089598D088F09F5790F0B92F9927B75147
:10170000A0F0D1F0660F771F881F991F1AF0BA95C5
:10171000C9F712C0B13081F09FD0B1E008959CC0EC
:10172000672F782F8827B85F39F0B93FCCF38695BB
:1017300077956795B395D9F73EF490958095709518
:1017400061957F4F8F4F9F4F0895E89409C097FB95
:101750003EF490958095709561957F4F8F4F9F4F88
:101760009923A9F0F92F96E9BB279395F6958795CC
:1017700077956795B795F111F8CFFAF4BB0F11F48F
:1017800060FF1BC06F5F7F4F8F4F9F4F16C0882336
:1017900011F096E911C0772321F09EE8872F762F6C
:1017A00005C0662371F096E8862F70E060E02AF0AD
:1017B0009A95660F771F881FDAF7880F9695879599
:1017C00097F9089597F99F6780E870E060E00895C1
:1017D0009FEF80EC089500240A9416161706180649
:1017E0000906089500240A94121613061406050625
:1017F0000895092E0394000C11F4882352F0BB0FB6
:1018000040F4BF2B11F460FF04C06F5F7F4F8F4F18
:101810009F4F089557FD9058440F551F59F05F3F53
:1018200071F04795880F97FB991F61F09F3F79F002
:1018300087950895121613061406551FF2CF469584
:10184000F1DF08C0161617061806991FF1CF869506
:101850007105610508940895E894BB2766277727EA
:10186000862F972F97F908950AD0C3CFB4DF28F0B9
:10187000B9DF18F0952309F0A5CFAACFEECFCADFC4
:10188000A8F39923D9F35523C9F3950F50E0551FB9
:10189000AA27EE27FF27BB2700240894679520F48A
:1018A000E20FF31FB41F0A1E220F331F441FAA1F8B
:1018B0006695A9F7779530F4F30FB41F0A1E121E30
:1018C00008F46395330F441FAA1F221F769599F7DA
:1018D000879520F4B40F0A1E121E631F440FAA1F1F
:1018E000221F331F8695A9F7862F712D602D112495
:1018F0009F5750408AF0E1F088234AF0EE0FFF1F17
:10190000BB1F661F771F881F91505040A9F79E3F4D
:10191000510570F057CFA1CF5F3FECF3983EDCF359
:10192000869577956795B795F795E7959F5FC1F78A
:0E193000FE2B880F911D9695879597F90895C7
:10193E006400010052010000007A010000005B010A
:06194E0000000040330020
:00000001FF
