:1000000010E0A0E6B0E0E2EBF3E103C0C895319662
:100010000D92AE36B107D1F720E0AEE6B0E001C0F8
:100020001D92A638B207E1F7282F392F842F952F7C
:1000300081309105C1F0892B99F42230310509F402
:100040004BC060F5232B09F452C081E090E001C061
:10005000880F6A95EAF7809597B3892387BB10C00C
:1000600081E090E008952230310531F160F4232BD6
:1000700059F101C0880F6A95EAF797B3892B87BBBE
:1000800080E090E008952330310551F701C0880FDA
:100090006A95EAF791B3892B81BBF2CF81E090E0BA
:1000A0002330310579F501C0880F6A95EAF780950C
:1000B00091B3892381BBE4CF01C0880F6A95EAF729
:1000C00094B3892B84BBDCCF01C0880F6A95EAF713
:1000D0009AB3892B8ABBD4CF81E090E001C0880F0E
:1000E0006A95EAF7809594B3892384BBC9CF81E0F0
:1000F00090E001C0880F6A95EAF780959AB389234A
:100100008ABBBECF0895282F392F842F952F813099
:100110009105C1F0892B99F42230310509F44BC0C7
:1001200060F5232B09F452C081E090E001C0880FF4
:100130006A95EAF7809598B3892388BB10C081E05F
:1001400090E008952230310531F160F4232B59F10C
:1001500001C0880F6A95EAF798B3892B88BB80E0C5
:1001600090E008952330310551F701C0880F6A955A
:10017000EAF792B3892B82BBF2CF81E090E0233083
:10018000310579F501C0880F6A95EAF7809592B339
:10019000892382BBE4CF01C0880F6A95EAF795B343
:1001A000892B85BBDCCF01C0880F6A95EAF79BB32A
:1001B000892B8BBBD4CF81E090E001C0880F6A957A
:1001C000EAF7809595B3892385BBC9CF81E090E09C
:1001D00001C0880F6A95EAF780959BB389238BBB92
:1001E000BECF0895282F392FE42FF52F2230310567
:1001F000B1F080F4232BA9F086B390E002C095956E
:1002000087956A95E2F7817099279183808380E0D2
:1002100090E008952330310531F480B3EECF83B3FD
:10022000ECCF89B3EACF81E090E00895282F392FF1
:10023000862F972F089790F42230310591F038F5EA
:10024000232BD9F021E030E001C0220F6A95EAF7B4
:1002500088B3822788BB80E090E0089581E090E039
:10026000089521E030E001C0220F6A95EAF785B3D6
:10027000822785BB80E090E0089521E030E001C056
:10028000220F6A95EAF78BB382278BBBE4CF23302A
:10029000310521F721E030E001C0220F6A95EAF72D
:1002A00082B3822782BBD7CF282F392F2115310562
:1002B00021F46ABB80E090E008952130310549F0D7
:1002C0002230310561F02330310539F081E090E0D2
:1002D000089567BB80E090E0089561BBEBCF64BBFD
:1002E000E9CF282F392F2230310571F030F4232B3C
:1002F00069F068BB80E090E008952330310541F457
:1003000062BB80E090E0089565BBF4CF6BBBF2CF99
:1003100081E090E00895282F392FE62FF72F223023
:10032000310581F038F4232B81F086B3808380E09F
:1003300090E008952330310559F480B3808380E044
:1003400090E0089583B38083F2CF89B38083EFCFA9
:1003500081E090E00895EF92FF920F931F93CF9367
:10036000DF93C82FD92FE62EBCD0082F192FE11408
:1003700071F0F12CEE0CFF1CEC0EFD1E8C2F9D2F4E
:1003800020D5082F192F2296EC16FD06B9F74FD36A
:10039000802F912FDF91CF911F910F91FF90EF90C0
:1003A0000895AF92BF92DF92EF92FF920F931F9347
:1003B000CF93DF93CDB7DEB728970FB6F894DEBFA3
:1003C0000FBECDBFE82EF92EEC2FFD2F319688E021
:1003D000AE2FBF2F1D928A95E9F70E2F1F2FD12C1C
:1003E000602F712F8E2D9F2D29D56D2D81E06BD221
:1003F000E02FF12F408151810E5F1F4F242F352FA9
:1004000040E050E060E070E080E090E01CD1B4E0BB
:10041000DB0E22E0E20EF11CA0E1DA12E1CF289619
:100420000FB6F894DEBF0FBECDBFDF91CF911F9105
:100430000F91FF90EF90DF90BF90AF900895CF9312
:10044000C82F40E050E065E070E082E090E05BDEC5
:1004500040E050E066E070E082E090E054DE8C2FF7
:10046000807F8BBB41E050E067E070E082E090E08D
:100470004ADE89EF90E00197F1F700C0000040E00C
:1004800050E067E070E082E090E03DDEE9EFF0E010
:100490003197F1F700C00000C295C07FCBBB41E0AF
:1004A00050E067E070E082E090E02DDE89EF90E0C0
:1004B0000197F1F700C0000040E050E067E070E015
:1004C00082E090E020DEE9EFF0E03197F1F700C044
:1004D0000000E9EFF0E03197F1F700C00000CF91A4
:1004E00008958FE097E20197F1F700C0000041E026
:1004F00050E064E070E080E090E096DD41E050E0A4
:1005000065E070E080E090E08FDD41E050E066E083
:1005100070E080E090E088DD41E050E067E070E06E
:1005200080E090E081DD41E050E065E070E082E055
:1005300090E07ADD41E050E066E070E082E090E03B
:1005400073DD41E050E067E070E082E090E06CDD58
:1005500082E075DFE9EFF0E03197F1F700C00000CD
:1005600088E26DDF89EF90E00197F1F700C00000AD
:100570008CE065DFE9EFF0E03197F1F700C00000B3
:1005800081E05DDF85ED96E00197F1F700C00000A6
:1005900086E055DFE9EFF0E03197F1F700C00000A9
:1005A0000895CF93C82F41E050E065E070E082E00D
:1005B00090E0A9DD40E050E066E070E082E090E08D
:1005C000A2DD8C2F807F8BBB41E050E067E070E0C4
:1005D00082E090E098DD89EF90E00197F1F700C0AC
:1005E000000040E050E067E070E082E090E08BDDEA
:1005F000E9EFF0E03197F1F700C00000C295C07F4D
:10060000CBBB41E050E067E070E082E090E07BDD52
:1006100089EF90E00197F1F700C0000040E050E062
:1006200067E070E082E090E06EDDE9EFF0E03197A6
:10063000F1F700C00000E9EFF0E03197F1F700C0FA
:100640000000CF9108952F923F924F925F926F9248
:100650007F928F929F92AF92BF92CF92DF92EF9252
:10066000FF920F931F93CF93DF93CDB7DEB76097C1
:100670000FB6F894DEBF0FBECDBF6B837C838D8336
:100680009E83A0E0FBD409F4DAC081E08F87198251
:100690001A82412C512C612C712C80E0232E852C48
:1006A000542E322E942C452E888B2F8538894981E3
:1006B0005A81692D782D862D972D02E0BDD4AF8407
:1006C000B888C980DA80E92CF82C062D172DCDD4F6
:1006D00001E0B2D429833A83642E752E862E972E9C
:1006E00088879F839AE0A92EB12CC12CD12CE12CB4
:1006F000F12C00E010E0232D322D452D542D6B817F
:100700007C818D819E8152D4A980BA80C62CD72C41
:10071000E82CF92C08851F81A8D42F87388B4983B2
:100720005A83962E872E682E792E3F8228865986E8
:100730004A868B818B878C818C878D818D878E817A
:100740008E872AE0A22EB12CC12CD12CE12CF12CC9
:1007500000E010E0232D322D452D542D6B857C8536
:100760008D859E8525D4322E232E542E452E6B83C7
:100770007C838D839E832F81388549855A856B853F
:100780007C858D859E85AAE079D408F08ECF8889F6
:10079000492C582C8F832F85382F49815A81692DF8
:1007A000782D862D972DA1E069D409F462C0342EEE
:1007B000252E8AE0A82EB12CC12CD12CE12CF12CB5
:1007C00000E010E02F853F81432D522D642D752DC3
:1007D000862D972DEBD380E3820FE3DE882E992EB2
:1007E0002F853F81432D522D642D752D862D972DFC
:1007F000DFD32F873F83342E252E462E572E682E8B
:10080000792EA1E03BD4A9F6882D992D60960FB6DC
:10081000F894DEBF0FBECDBFDF91CF911F910F9136
:10082000FF90EF90DF90CF90BF90AF909F908F9010
:100830007F906F905F904F903F902F90089580E34E
:1008400060960FB6F894DEBF0FBECDBFDF91CF919B
:100850001F910F91FF90EF90DF90CF90BF90AF90DE
:100860009F908F907F906F905F904F903F902F90D0
:1008700098CE812C912CC8CF0F931F93CF93082F24
:10088000192F01151105A9F0E02FF12F8081811595
:10089000B9F0C0E086DE282FCF5FE02FF12FEC0FFC
:1008A000F11D80818111F6CF822FCF911F910F9181
:1008B000089521E090E0822FCF911F910F9108952C
:1008C00020E090E0F1CF811541F0813019F082E015
:1008D00090E0089580EC860FB2CD80E8860FAFCD12
:1008E000DF92EF92FF920F931F93CF93DF93C82F66
:1008F000D92FF62EE42ED22E2097E9F088E0860F2D
:10090000880F880F880F9BDD0C2F1D2F085F1F4F4E
:10091000899147DEC017D107D9F7E114B1F081E022
:10092000E816B9F08F2DDF91CF911F910F91FF90B5
:10093000EF90DF9036CE81E090E0DF91CF911F9174
:100940000F91FF90EF90DF90089580E88D0D77DD97
:10095000E9CF80EC8D0D73DDE5CF40E050E065E040
:1009600070E082E090E0CFDB40E050E066E070E0D5
:1009700082E090E0C8DB1BBA41E050E067E070E045
:1009800082E090E0C0DB89EF90E00197F1F700C0D2
:10099000000040E050E067E070E082E090E0B3DB10
:1009A000E9EFF0E03197F1F700C0000080E18BBB88
:1009B00041E050E067E070E082E090E0A4DB89EF86
:1009C00090E00197F1F700C0000040E050E067E0E0
:1009D00070E082E090E097DBE9EFF0E03197F1F72B
:1009E00000C00000E9EFF0E03197F1F700C000002F
:1009F000E5EDF6E03197F1F700C00000089583B708
:100A00008F7B83BF83B7877F83BF80E882BF89B72F
:100A10008E7F89BF83B7887F83BF83B7816083BFA1
:100A2000089582BF08958CBF089582B708958FB549
:100A30008C7F8FBD8EB5982F977E9EBD1DBC1CBC34
:100A400099B79B7F99BF807E81608EBD0895282FC6
:100A5000392F3DBD2CBD0895282F392F3BBD2ABD10
:100A60000895282F392F39BD28BD0895282F392FF3
:100A700037BD26BD08958CB59DB508958EB58064AB
:100A80008EBD89B7806289BF0895811559F0813084
:100A900031F48EB580648EBD80E090E0089581E0F1
:100AA00090E008958EB58F7B8EBD80E090E0089534
:100AB00089B7806289BF089589B78F7D89BF0895FE
:100AC00086B597B5089585B5982F977B95BD90E825
:100AD00094BD99B79F7B99BF807B836085BD089546
:100AE00084BD089583BD089584B5089581B5887F38
:100AF00081BD81B5866081BD089581B5886081BD65
:100B0000089581B5886181BD11BC0895282F392FC2
:100B10002115310559F0E62FF0E0EE0FFF1FE259E5
:100B2000FF4F3183208380E090E0089581E090E0E2
:100B300008951F920F920FB60F9211242F933F9397
:100B40004F935F936F937F938F939F93AF93BF93D5
:100B5000EF93FF93E0917600F0917700309709F0E2
:100B60000995FF91EF91BF91AF919F918F917F91E7
:100B70006F915F914F913F912F910F900FBE0F900A
:100B80001F9018951F920F920FB60F9211242F935A
:100B90003F934F935F936F937F938F939F93AF9305
:100BA000BF93EF93FF93E0917800F0917900309735
:100BB00009F00995FF91EF91BF91AF919F918F91AE
:100BC0007F916F915F914F913F912F910F900FBE49
:100BD0000F901F9018951F920F920FB60F9211242D
:100BE0002F933F934F935F936F937F938F939F9335
:100BF000AF93BF93EF93FF93E0917A00F0917B0066
:100C0000309709F00995FF91EF91BF91AF919F91B6
:100C10008F917F916F915F914F913F912F910F90A5
:100C20000FBE0F901F9018951F920F920FB60F9244
:100C300011242F933F934F935F936F937F938F93E1
:100C40009F93AF93BF93EF93FF93E0917C00F0915C
:100C50007D00309709F00995FF91EF91BF91AF9119
:100C60009F918F917F916F915F914F913F912F91C4
:100C70000F900FBE0F901F9018951F920F920FB6F6
:100C80000F9211242F933F934F935F936F937F9312
:100C90008F939F93AF93BF93EF93FF93E0917E0069
:100CA000F0917F00309709F00995FF91EF91BF9186
:100CB000AF919F918F917F916F915F914F913F91F4
:100CC0002F910F900FBE0F901F9018951F920F92AB
:100CD0000FB60F9211242F933F934F935F936F930F
:100CE0007F938F939F93AF93BF93EF93FF93E09185
:100CF0008000F0918100309709F00995FF91EF9104
:100D0000BF91AF919F918F917F916F915F914F9123
:100D10003F912F910F900FBE0F901F9018951F922B
:100D20000F920FB60F9211242F933F934F935F931F
:100D30006F937F938F939F93AF93BF93EF93FF93A3
:100D4000E0918200F0918300309709F00995FF91BE
:100D5000EF91BF91AF919F918F917F916F915F9133
:100D60004F913F912F910F900FBE0F901F901895AC
:100D70001F920F920FB60F9211242F933F934F9310
:100D80005F936F937F938F939F93AF93BF93EF93F3
:100D9000FF93E0918400F0918500309709F0099568
:100DA000FF91EF91BF91AF919F918F917F916F9143
:100DB0005F914F913F912F910F900FBE0F901F9019
:100DC0001895CF93DF93C82FD92F209791F1888161
:100DD000682F669566956695677070E0877041E04C
:100DE00050E090E021D98981682F669566956695D7
:100DF000677070E0877040E050E090E015D988811E
:100E0000682F669566956695677070E0877040E01C
:100E100050E090E078D98981682F6695669566954F
:100E2000677070E0877040E050E090E0DF91CF9114
:100E30006AC981E090E0DF91CF910895AF92BF92AF
:100E4000CF92DF92EF92FF920F931F93CF93DF9396
:100E500000D0CDB7DEB7E82EF92EA62EB72E1A8217
:100E6000198201E010E0E114F10409F477C0EE2DDD
:100E7000FF2D8081682F669566956695677070E096
:100E8000877041E050E090E03ED9F3E0FA95F1F749
:100E90000000EE2DFF2D8081682F66956695669582
:100EA000677070E0877040E050E090E02CD9082F28
:100EB000192F89819A81892BC9F48C2F9D2F019636
:100EC000C82ED92EEE2DFF2D8181682F669566954F
:100ED0006695677070E087704C2D5D2D90E082D92B
:100EE000082F192F29813A81232B61F380E090E0AC
:100EF000AEDD89819A810197D1F48C2F9D2F0196C7
:100F0000C82ED92EEE2DFF2D8181682F669566950E
:100F10006695677070E087704C2D5D2D90E062D90A
:100F2000082F192F29813A812130310559F3C8DD65
:100F3000682F792F80E090E042D120E030E040E05F
:100F40005EE3CCD123E333E349E652E4A3D00BD1F3
:100F5000862F972FEA2DFB2D91838083802F912F51
:100F60000F900F90DF91CF911F910F91FF90EF9015
:100F7000DF90CF90BF90AF90089560916200809114
:100F8000630090916400E7D9282F392F30936100D6
:100F900020936000809163009091640002DA282F12
:100FA000392F3093610020936000F4CF689401C022
:100FB000E8948F929F92CF93DF9305D0DF91CF91EA
:100FC0009F908F90089588249924E82DF92DC82D9D
:100FD000D92DB0E41B2EA82DB92D220F331F441F8D
:100FE000551F661F771F881F991F881C991CEE1FAD
:100FF000FF1FCC1FDD1FAA1FBB1F8A149B04EC051B
:10100000FD05CE05DF05A007B10748F08A189B084B
:10101000EC09FD09CE09DF09A00BB10B21601A9480
:10102000E1F64EF4282D392D4E2F5F2F6C2F7D2F9A
:101030008A2F9B2F000C0895002E083090F0982FD7
:10104000872F762F652F542F432F322F22270850BA
:10105000F4CF220F331F441F551F661F771F881FB1
:10106000991F0A95B2F7002D08952A0D3B1D4C1DBE
:101070005D1D6E1D7F1D801F911F08950024A7FD1B
:1010800000942A173005400550056005700580055D
:10109000900508950CD0E7C0DFD040F0D6D030F0F6
:1010A00021F45F3F19F0C8C0511111C1CBC0ECD081
:1010B00098F39923C9F35523B1F3951B550BBB271F
:1010C000AA2762177307840738F09F5F5F4F220FCC
:1010D000331F441FAA1FA9F334D00E2E3AF0E0E8C4
:1010E00031D091505040E695001CCAF72AD0FE2F0F
:1010F00028D0660F771F881FBB1F261737074807A2
:10110000AB07B0E809F0BB0B802D6E2F7F2FFF27B8
:1011100093585F4F2AF09E3F510568F08DC0D7C0AD
:101120005F3FECF3983EDCF3869577956795B7952E
:10113000F7959F5FC9F7880F911D9695879597F949
:101140000895E1E0660F771F881FBB1F62177307C2
:101150008407BA0720F0621B730B840BBA0BEE1FD7
:1011600088F7E095089598D088F09F5790F0B92FB0
:101170009927B751A0F0D1F0660F771F881F991FEC
:101180001AF0BA95C9F712C0B13081F09FD0B1E022
:1011900008959CC0672F782F8827B85F39F0B93F32
:1011A000CCF3869577956795B395D9F73EF49095EE
:1011B0008095709561957F4F8F4F9F4F0895E8946C
:1011C00009C097FB3EF490958095709561957F4F8F
:1011D0008F4F9F4F9923A9F0F92F96E9BB2793953D
:1011E000F695879577956795B795F111F8CFFAF44D
:1011F000BB0F11F460FF1BC06F5F7F4F8F4F9F4F7E
:1012000016C0882311F096E911C0772321F09EE8DB
:10121000872F762F05C0662371F096E8862F70E041
:1012200060E02AF09A95660F771F881FDAF7880F1B
:101230009695879597F9089597F99F6780E870E0EC
:1012400060E008959FEF80EC089500240A9416163C
:10125000170618060906089500240A9412161306A4
:10126000140605060895092E0394000C11F4882332
:1012700052F0BB0F40F4BF2B11F460FF04C06F5F4E
:101280007F4F8F4F9F4F089557FD9058440F551F24
:1012900059F05F3F71F04795880F97FB991F61F0F8
:1012A0009F3F79F087950895121613061406551F6F
:1012B000F2CF4695F1DF08C0161617061806991FDB
:1012C000F1CF86957105610508940895E894BB27D0
:1012D00066277727862F972F97F908950AD0C3CFCF
:1012E000B4DF28F0B9DF18F0952309F0A5CFAACF15
:1012F000EECFCADFA8F39923D9F35523C9F3950F8D
:1013000050E0551FAA27EE27FF27BB27002408948B
:10131000679520F4E20FF31FB41F0A1E220F331F3C
:10132000441FAA1F6695A9F7779530F4F30FB41FF1
:101330000A1E121E08F46395330F441FAA1F221FB2
:10134000769599F7879520F4B40F0A1E121E631F35
:10135000440FAA1F221F331F8695A9F7862F712DD0
:10136000602D11249F5750408AF0E1F088234AF005
:10137000EE0FFF1FBB1F661F771F881F9150504045
:10138000A9F79E3F510570F057CFA1CF5F3FECF317
:10139000983EDCF3869577956795B795F795E79531
:1013A0009F5FC1F7FE2B880F911D9695879597F942
:0213B00008959E
:0E13B2000100046500413349335133593300C3
:00000001FF
