:1000000029C0000042C0000040C000003EC0000007
:100010002BC3000052C3000079C30000A0C300003E
:10002000C7C30000EEC3000015C400003CC40000BC
:100030002CC000002AC0000028C0000026C000001C
:1000400024C0000022C0000020C000001EC000002C
:100050001CC0000011241FBECFE5D8E0DEBFCDBF1D
:1000600010E0A0E6B0E0E4EEFEE002C005900D92E4
:10007000AC36B107D9F720E0ACE6B0E001C01D9284
:10008000AA37B207E1F702D02BC7BACF609161005F
:100090008091620090916300F1D080936000809124
:1000A0006200909163000ED1F8CF413061F581304C
:1000B000C1F070F08230F1F0833009F05BC081E074
:1000C00090E001C0880F6A95EAF791B3892B4FC081
:1000D00081E090E001C0880F6A95EAF79AB3892B16
:1000E0002EC081E090E001C0880F6A95EAF797B3CF
:1000F000892B30C081E090E001C0880F6A95EAF753
:1001000094B3892B32C0411135C08130D1F070F0E9
:10011000823011F1833071F581E090E001C0880FE9
:100120006A95EAF7809591B3892321C081E090E038
:1001300001C0880F6A95EAF780959AB389238ABB34
:1001400017C081E090E001C0880F6A95EAF78095BA
:1001500097B3892387BB0CC081E090E001C0880F72
:100160006A95EAF7809594B3892384BB01C081BB6B
:1001700080E0089581E00895413061F58130C1F05B
:1001800070F08230F1F0833009F05BC081E090E0E4
:1001900001C0880F6A95EAF792B3892B4FC081E0BE
:1001A00090E001C0880F6A95EAF79BB3892B2EC0B7
:1001B00081E090E001C0880F6A95EAF798B3892B37
:1001C00030C081E090E001C0880F6A95EAF795B3EE
:1001D000892B32C0411135C08130D1F070F08230AE
:1001E00011F1833071F581E090E001C0880F6A95CC
:1001F000EAF7809592B3892321C081E090E001C0A5
:10020000880F6A95EAF780959BB389238BBB17C04B
:1002100081E090E001C0880F6A95EAF7809598B375
:10022000892388BB0CC081E090E001C0880F6A95EB
:10023000EAF7809595B3892385BB01C082BB80E036
:10024000089581E00895FA01813049F030F082305C
:1002500041F0833089F480B305C089B303C086B30D
:1002600001C083B390E002C0959587956A95E2F747
:100270008170808380E0089581E00895DF92EF929D
:10028000FF920F931F93CF93DF937C01C62F8FD1E3
:10029000D82E00E010E0D0E00C171D074CF4C70189
:1002A0002BD3D82E82E0E80EF11C0F5F1F4FF4CF46
:1002B000C5D18D2DDF91CF911F910F91FF90EF90C0
:1002C000DF900895AF92BF92CF92DF92FF920F938B
:1002D0001F93CF93DF93CDB7DEB728970FB6F8946F
:1002E000DEBF0FBECDBF6C01FE01319688E0DF019D
:1002F0001D928A95E9F78F01F12CB801C6012BD325
:100300006F2D81E040D1F801408151810E5F1F4F78
:100310009A0140E050E060E070E080E090E061D061
:10032000B4E0FB0E92E0C90ED11CA0E1FA12E5CFB9
:1003300028960FB6F894DEBF0FBECDBFDF91CF91E8
:100340001F910F91FF90DF90CF90BF90AF900895D5
:1003500041E067E082E010DF8FEC97E00197F1F772
:1003600000C0000040E067E082E006DFEFECF7E06D
:100370003197F1F700C000000895CF93C82F40E0F7
:1003800065E082E0F9DE40E066E082E0F5DE8C2F99
:10039000807F8BBBDDDFC295C07FCBBBD9DFEFECAD
:1003A000F7E03197F1F700C00000CF910895CF93A7
:1003B000C82F41E065E082E0DFDE40E066E082E0F9
:1003C000DBDE8C2F807F8BBBC3DFC295C07FCBBBB6
:1003D000BFDFEFECF7E03197F1F700C00000CF91FD
:1003E00008952F923F924F925F926F927F928F92D9
:1003F0009F92AF92BF92CF92DF92EF92FF920F93B4
:100400001F93CF93DF93CDB7DEB728970FB6F8943D
:10041000DEBF0FBECDBF29833A834B835C836D83E0
:100420007E831C01A0E0BCD3D1F480E328960FB6F4
:10043000F894DEBF0FBECDBFDF91CF911F910F911A
:10044000FF90EF90DF90CF90BF90AF909F908F90F4
:100450007F906F905F904F903F902F90A8CF662431
:100460006394712C812C912C18861F82412C512C65
:100470009AE0A92EB12CC12CD12CE12CF12C00E05A
:1004800010E09301A40168857F81C201D1D2288741
:100490003F83942E852E762E672E582E492E298145
:1004A0003A814B815C816D817E81C10112D3A88428
:1004B000BF80C92CD82CE72CF62C052D142D67D322
:1004C00039014A0168877F832C012AE0A22EB12CD2
:1004D000C12CD12CE12CF12C00E010E029813A81D3
:1004E0004B815C816D817E81C101F5D229833A8384
:1004F0004B835C836D837E831C01A0E051D309F0A4
:10050000B7CF312C9301A40168857F81C201A1E09E
:1005100047D3F9F08AE0A82EB12CC12CD12CE12CC4
:10052000F12C00E010E09301A40168857F81C201F5
:10053000D0D280E3820F3BDF382E9301A40168857F
:100540007F81C201C8D239014A0168877F832C01AB
:10055000D9CF832D28960FB6F894DEBF0FBECDBF3E
:10056000DF91CF911F910F91FF90EF90DF90CF908F
:10057000BF90AF909F908F907F906F905F904F90C3
:100580003F902F900895811102C080E803C0813010
:1005900019F480EC860FF1CE82E0089581E0EDDE63
:1005A000EFEAF6E33197F1F700C0000008952FEF6E
:1005B00089EF90E0215080409040E1F700C00000BA
:1005C00041E064E080E071DD41E065E080E06DDD08
:1005D00041E066E080E069DD41E067E080E065DD04
:1005E00041E065E082E061DD41E066E082E05DDD02
:1005F00041E067E082E059DD82E0BFDEEFECF7E04A
:100600003197F1F700C0000088E2B7DE8FEC97E089
:100610000197F1F700C000008CE0AFDEEFECF7E0EF
:100620003197F1F700C00000B9DF86E0A6DEEFECFD
:10063000F7E03197F1F700C0000008958FB58C7F87
:100640008FBD8EB5982F977E9EBD1DBC1CBC99B7E3
:100650009B7F99BF807E81608EBD08959DBD8CBDBE
:10066000089586B597B508951F920F920FB60F9211
:1006700011242F933F934F935F936F937F938F93A7
:100680009F93AF93BF93EF93FF93E0916C00F09132
:100690006D00309709F00995FF91EF91BF91AF91EF
:1006A0009F918F917F916F915F914F913F912F918A
:1006B0000F900FBE0F901F9018951F920F920FB6BC
:1006C0000F9211242F933F934F935F936F937F93D8
:1006D0008F939F93AF93BF93EF93FF93E0916E003F
:1006E000F0916F00309709F00995FF91EF91BF915C
:1006F000AF919F918F917F916F915F914F913F91BA
:100700002F910F900FBE0F901F9018951F920F9270
:100710000FB60F9211242F933F934F935F936F93D4
:100720007F938F939F93AF93BF93EF93FF93E0914A
:100730007000F0917100309709F00995FF91EF91E9
:10074000BF91AF919F918F917F916F915F914F91E9
:100750003F912F910F900FBE0F901F9018951F92F1
:100760000F920FB60F9211242F933F934F935F93E5
:100770006F937F938F939F93AF93BF93EF93FF9369
:10078000E0917200F0917300309709F00995FF91A4
:10079000EF91BF91AF919F918F917F916F915F91F9
:1007A0004F913F912F910F900FBE0F901F90189572
:1007B0001F920F920FB60F9211242F933F934F93D6
:1007C0005F936F937F938F939F93AF93BF93EF93B9
:1007D000FF93E0917400F0917500309709F009954E
:1007E000FF91EF91BF91AF919F918F917F916F9109
:1007F0005F914F913F912F910F900FBE0F901F90DF
:1008000018951F920F920FB60F9211242F933F93BA
:100810004F935F936F937F938F939F93AF93BF9308
:10082000EF93FF93E0917600F0917700309709F015
:100830000995FF91EF91BF91AF919F918F917F911A
:100840006F915F914F913F912F910F900FBE0F903D
:100850001F9018951F920F920FB60F9211242F938D
:100860003F934F935F936F937F938F939F93AF9338
:10087000BF93EF93FF93E0917800F0917900309768
:1008800009F00995FF91EF91BF91AF919F918F91E1
:100890007F916F915F914F913F912F910F900FBE7C
:1008A0000F901F9018951F920F920FB60F92112460
:1008B0002F933F934F935F936F937F938F939F9368
:1008C000AF93BF93EF93FF93E0917A00F0917B0099
:1008D000309709F00995FF91EF91BF91AF919F91EA
:1008E0008F917F916F915F914F913F912F910F90D9
:1008F0000FBE0F901F901895CF93DF93009739F19B
:10090000EC018881682F669566956695677041E071
:100910008770CBDB8981682F6695669566956770D1
:1009200040E08770C2DB8881682F66956695669582
:10093000677040E0877020DC8981682F6695669536
:100940006695677040E08770DF91CF9115CC81E0AC
:10095000DF91CF910895CF92DF92FF920F931F9373
:10096000CF93DF931F92CDB7DEB71982009709F4BA
:1009700053C06B018C01FC018081682F66956695E0
:100980006695677041E08770F7DBFAE1FA95F1F759
:1009900000C0F8018081682F66956695669567703E
:1009A00040E08770E9DBF82E898181110DC0F801E4
:1009B0008181682F6695669566956770AE014F5F79
:1009C0005F4F877040DCEFCF80E090E047DE8981A9
:1009D000813071F4F8018181682F6695669566957E
:1009E0006770AE014F5F5F4F87702DDCF82EEFCF41
:1009F00038DEBC0180E090E082D120E030E040E0D1
:100A00005EE30BD223E333E349E652E4E4D04BD177
:100A1000F6017183608302C0FF24F3948F2D0F9041
:100A2000DF91CF911F910F91FF90DF90CF900895AC
:100A3000DF93CF931F930F939A9DF02D219FF00D7D
:100A40008B9DF00D8A9DE02DF10D039FF00D029F0F
:100A5000E00DF11D4E9DE00DF11D5E9DF00D4F9DD1
:100A6000F00D7F936F93BF92AF925F934F93D50139
:100A7000A3D08B01AC01D7019FD0EB01E80FF91F88
:100A8000D6011FD02F913F91D60196D0C60FD71F08
:100A9000E81FF91FAF91BF9114D02F913F918CD0D7
:100AA000C60FD71FE81FF91FD60186D0E60FF71F24
:100AB0009801BE01CF0111240F911F91CF91DF91B9
:100AC00008957AD0460F571FC81FD91F08F43196D2
:100AD0000895689401C0E8948F929F92CF93DF931A
:100AE00005D0DF91CF919F908F900895882499240D
:100AF000F401E401B0E49F93AA279A158B049C04A7
:100B0000ED05FE05CF05D007A10798F4AD2FDC2F2A
:100B1000CF2FFE2FE92D982C892E982F872F762FF7
:100B2000652F542F432F322F2227B85031F7BF9112
:100B300027C01B2EBF91BB27220F331F441F551FF9
:100B4000661F771F881F991F881C991CEE1FFF1FA7
:100B5000CC1FDD1FAA1FBB1F8A149B04EC05FD05DB
:100B6000CE05DF05A007B10748F08A189B08EC09FD
:100B7000FD09CE09DF09A00BB10B21601A94E1F643
:100B80002EF49401AF01BE01CD01000C08952A0D91
:100B90003B1D4C1D5D1D6E1D7F1D801F911F089507
:100BA0000024A7FD00942A17300540055005600574
:100BB0007005800590050895A29FB001B39FC00104
:100BC000A39F700D811D1124911DB29F700D811D79
:100BD0001124911D08950CD0E6C0DED040F0D5D090
:100BE00030F021F45F3F19F0C7C0511110C1CAC0E5
:100BF000EBD098F39923C9F35523B1F3951B550B0B
:100C0000BB27AA2762177307840738F09F5F5F4FDF
:100C1000220F331F441FAA1FA9F333D00E2E3AF020
:100C2000E0E830D091505040E695001CCAF729D03A
:100C3000FE2F27D0660F771F881FBB1F2617370789
:100C40004807AB07B0E809F0BB0B802DBF01FF27B9
:100C500093585F4F2AF09E3F510568F08DC0D7C072
:100C60005F3FECF3983EDCF3869577956795B795F3
:100C7000F7959F5FC9F7880F911D9695879597F90E
:100C80000895E1E0660F771F881FBB1F6217730787
:100C90008407BA0720F0621B730B840BBA0BEE1F9C
:100CA00088F7E095089598D088F09F5790F0B92F75
:100CB0009927B751A0F0D1F0660F771F881F991FB1
:100CC0001AF0BA95C9F712C0B13081F09FD0B1E0E7
:100CD00008959CC0672F782F8827B85F39F0B93FF7
:100CE000CCF3869577956795B395D9F73EF49095B3
:100CF0008095709561957F4F8F4F9F4F0895E89431
:100D000009C097FB3EF490958095709561957F4F53
:100D10008F4F9F4F9923A9F0F92F96E9BB27939501
:100D2000F695879577956795B795F111F8CFFAF411
:100D3000BB0F11F460FF1BC06F5F7F4F8F4F9F4F42
:100D400016C0882311F096E911C0772321F09EE8A0
:100D5000872F762F05C0662371F096E8862F70E006
:100D600060E02AF09A95660F771F881FDAF7880FE0
:100D70009695879597F9089597F99F6780E870E0B1
:100D800060E008959FEF80EC089500240A94161601
:100D9000170618060906089500240A941216130669
:100DA000140605060895092E0394000C11F48823F7
:100DB00052F0BB0F40F4BF2B11F460FF04C06F5F13
:100DC0007F4F8F4F9F4F089557FD9058440F551FE9
:100DD00059F05F3F71F04795880F97FB991F61F0BD
:100DE0009F3F79F087950895121613061406551F34
:100DF000F2CF4695F1DF08C0161617061806991FA0
:100E0000F1CF86957105610508940895E894BB2794
:100E100066277727CB0197F908950BD0C4CFB5DFAC
:100E200028F0BADF18F0952309F0A6CFABCF112434
:100E3000EECFCADFA0F3959FD1F3950F50E0551F79
:100E4000629FF001729FBB27F00DB11D639FAA271F
:100E5000F00DB11DAA1F649F6627B00DA11D661F6E
:100E6000829F2227B00DA11D621F739FB00DA11D8F
:100E7000621F839FA00D611D221F749F3327A00D49
:100E8000611D231F849F600D211D822F762F6A2FE5
:100E900011249F5750408AF0E1F088234AF0EE0F6A
:100EA000FF1FBB1F661F771F881F91505040A9F777
:100EB0009E3F510570F060CFAACF5F3FECF3983EA4
:100EC000DCF3869577956795B795F795E7959F5FDE
:100ED000C1F7FE2B880F911D9695879597F9089578
:040EE000F894FFCFB4
:0C0EE40001046400413349335133593399
:00000001FF
