:100000000C942A000C9447000C9447000C94470071
:100010000C940B020C9434020C945D020C94860236
:100020000C94AF020C94D8020C9401030C942A0394
:100030000C9447000C9447000C9447000C94470024
:100040000C9447000C9447000C9447000C94470014
:100050000C94470011241FBECFE5D8E0DEBFCDBF12
:1000600010E0A0E6B0E0EAEAF6E002C005900D92EA
:10007000A236B107D9F720E0A2E6B0E001C01D9298
:10008000A037B207E1F70E9449000C9453030C9487
:1000900000000E94B5018093600080E50E948D0100
:1000A000809360002FEF83ED90E3215080409040DB
:1000B000E1F700C00000F1CF4130C1F5813091F08F
:1000C00028F08230D9F0833029F16EC081E090E0D1
:1000D00002C0880F991F6A95E2F79AB3892B8ABBF1
:1000E00080E0089581E090E002C0880F991F6A9532
:1000F000E2F797B3892B87BB80E0089581E090E019
:1001000002C0880F991F6A95E2F794B3892B84BBCC
:1001100080E0089581E090E002C0880F991F6A9501
:10012000E2F791B3892B81BB80E0089541113EC075
:10013000813099F028F08230E9F0833041F138C005
:1001400081E090E002C0880F991F6A95E2F78095E0
:100150009AB389238ABB80E0089581E090E002C0D1
:10016000880F991F6A95E2F7809597B3892387BB1B
:1001700080E0089581E090E002C0880F991F6A95A1
:10018000E2F7809594B3892384BB80E0089581E0F1
:1001900090E002C0880F991F6A95E2F7809591B3AD
:1001A000892381BB80E0089581E0089581E008956E
:1001B00081E008954130C1F5813091F028F082301E
:1001C000D9F0833029F16EC081E090E002C0880F41
:1001D000991F6A95E2F79BB3892B8BBB80E008954A
:1001E00081E090E002C0880F991F6A95E2F798B30A
:1001F000892B88BB80E0089581E090E002C0880FE1
:10020000991F6A95E2F795B3892B85BB80E0089525
:1002100081E090E002C0880F991F6A95E2F792B3DF
:10022000892B82BB80E0089541113EC0813099F056
:1002300028F08230E9F0833041F138C081E090E06D
:1002400002C0880F991F6A95E2F780959BB38923B6
:100250008BBB80E0089581E090E002C0880F991F79
:100260006A95E2F7809598B3892388BB80E008956A
:1002700081E090E002C0880F991F6A95E2F78095AF
:1002800095B3892385BB80E0089581E090E002C0AA
:10029000880F991F6A95E2F7809592B3892382BBF4
:1002A00080E0089581E0089581E0089581E0089557
:1002B00041E067E082E00E94DA008FEC97E001976E
:1002C000F1F700C0000040E067E082E00E94DA0041
:1002D000EFECF7E03197F1F700C000000895CF93FD
:1002E000C82F40E065E082E00E94DA0040E066E06E
:1002F00082E00E94DA008C2F807F8BBB0E94580125
:10030000C295C07FCBBB0E945801EFECF7E031975C
:10031000F1F700C00000CF910895CF93C82F41E0BE
:1003200065E082E00E94DA0040E066E082E00E9440
:10033000DA008C2F807F8BBB0E945801C295C07F52
:10034000CBBB0E945801EFECF7E03197F1F700C00A
:100350000000CF91089581E00E946F01EFE6F7E180
:100360003197F1F700C0000008958FE19EE40197F6
:10037000F1F700C0000041E064E080E00E945C0012
:1003800041E065E080E00E945C0041E066E080E0E2
:100390000E945C0041E067E080E00E945C0041E078
:1003A00065E082E00E945C0041E066E082E00E943D
:1003B0005C0041E067E082E00E945C00EFE1FEE467
:1003C0003197F1F700C0000082E00E946F018FE9D1
:1003D0009FE00197F1F700C0000088E20E946F01E2
:1003E000E7EEF3E03197F1F700C000008CE00E94E7
:1003F0006F0187EE93E00197F1F700C000000E94C3
:10040000AB0186E00E946F01EFE9FFE03197F1F761
:1004100000C0000008951F920F920FB60F92112492
:100420002F933F934F935F936F937F938F939F93FC
:10043000AF93BF93EF93FF93E0916200F09163005D
:10044000309709F00995FF91EF91BF91AF919F917E
:100450008F917F916F915F914F913F912F910F906D
:100460000FBE0F901F9018951F920F920FB60F920C
:1004700011242F933F934F935F936F937F938F93A9
:100480009F93AF93BF93EF93FF93E0916400F0913C
:100490006500309709F00995FF91EF91BF91AF91F9
:1004A0009F918F917F916F915F914F913F912F918C
:1004B0000F900FBE0F901F9018951F920F920FB6BE
:1004C0000F9211242F933F934F935F936F937F93DA
:1004D0008F939F93AF93BF93EF93FF93E091660049
:1004E000F0916700309709F00995FF91EF91BF9166
:1004F000AF919F918F917F916F915F914F913F91BC
:100500002F910F900FBE0F901F9018951F920F9272
:100510000FB60F9211242F933F934F935F936F93D6
:100520007F938F939F93AF93BF93EF93FF93E0914C
:100530006800F0916900309709F00995FF91EF91FB
:10054000BF91AF919F918F917F916F915F914F91EB
:100550003F912F910F900FBE0F901F9018951F92F3
:100560000F920FB60F9211242F933F934F935F93E7
:100570006F937F938F939F93AF93BF93EF93FF936B
:10058000E0916A00F0916B00309709F00995FF91B6
:10059000EF91BF91AF919F918F917F916F915F91FB
:1005A0004F913F912F910F900FBE0F901F90189574
:1005B0001F920F920FB60F9211242F933F934F93D8
:1005C0005F936F937F938F939F93AF93BF93EF93BB
:1005D000FF93E0916C00F0916D00309709F0099560
:1005E000FF91EF91BF91AF919F918F917F916F910B
:1005F0005F914F913F912F910F900FBE0F901F90E1
:1006000018951F920F920FB60F9211242F933F93BC
:100610004F935F936F937F938F939F93AF93BF930A
:10062000EF93FF93E0916E00F0916F00309709F027
:100630000995FF91EF91BF91AF919F918F917F911C
:100640006F915F914F913F912F910F900FBE0F903F
:100650001F9018951F920F920FB60F9211242F938F
:100660003F934F935F936F937F938F939F93AF933A
:10067000BF93EF93FF93E0917000F091710030977A
:1006800009F00995FF91EF91BF91AF919F918F91E3
:100690007F916F915F914F913F912F910F900FBE7E
:0A06A0000F901F901895F894FFCFFB
:0206AA0001004D
:00000001FF
