:100000000C942A000C9447000C9447000C94470071
:100010000C9447000C9447000C9447000C94470044
:100020000C9447000C9447000C9447000C94470034
:100030000C9447000C9447000C9447000C94470024
:100040000C9447000C9447000C9447000C94470014
:100050000C94470011241FBECFE5D8E0DEBFCDBF12
:1000600010E0A0E6B0E0EAE8F1E002C005900D92F1
:10007000A436B107D9F720E0A4E6B0E001C01D9294
:10008000A436B207E1F70E94A5000C94C3000C94BB
:100090000000811102C06ABB0895813019F467BB6A
:1000A00080E00895823019F464BB80E008958330C5
:1000B00019F461BB80E0089581E00895813049F032
:1000C00028F0823049F0833051F00CC06BBB80E0E7
:1000D000089568BB80E0089565BB80E0089562BB29
:1000E00080E0089581E008958FB780688FBF0895FC
:1000F000880F82B986B7806486BF86B7846086BF62
:100100000895FC0196B7906896BF96B7946096BF25
:1001100096B7906496BF06B607FEFDCF81B196B73D
:10012000906896BF96B7946096BF96B7906496BF56
:1001300006B607FEFDCF91B1987F903821F483B1C8
:10014000808380E0089581E00895CF93DF931F922C
:10015000CDB7DEB76091600080E00E9449008093D7
:1001600062008AEA0E9478000E947400CE01019623
:100170000E94810080936100698180E00E945E009E
:0A01800080936200F3CFF894FFCFE4
:04018A00FF01010070
:00000001FF
