S019000047726164756174696F6E50726F6A6563742E7372656326
S11300000C942A000C943F000C943F000C943F0085
S11300100C943F000C943F000C943F000C943F0060
S11300200C943F000C943F000C943F000C943F0050
S11300300C943F000C943F000C943F000C943F0040
S11300400C943F000C943F000C943F000C943F0030
S11300500C943F0011241FBECFE5D8E0DEBFCDBF16
S113006010E0A0E6B0E0E6E7F4E002C005900D92EF
S1130070A038B107D9F70E9441000C9439020C94BE
S11300800000CF93DF931F92CDB7DEB781E0898361
S11300900E94A3012FE041E060E088E790E00E9425
S11300A00A0289832EE041E061E080E790E00E944B
S11300B00A0289832DE041E062E088E690E00E9434
S11300C00A0289832CE041E063E080E690E00E942C
S11300D00A0289832FEF81E19AE721508040904002
S11300E0E1F700C00000D6CF4130C1F5813091F076
S11300F028F08230D9F0833029F16EC081E090E09D
S113010002C0880F991F6A95E2F79AB3892B8ABBBC
S113011080E0089581E090E002C0880F991F6A95FD
S1130120E2F797B3892B87BB80E0089581E090E0E4
S113013002C0880F991F6A95E2F794B3892B84BB98
S113014080E0089581E090E002C0880F991F6A95CD
S1130150E2F791B3892B81BB80E0089541113EC041
S1130160813099F028F08230E9F0833041F138C0D1
S113017081E090E002C0880F991F6A95E2F78095AC
S11301809AB389238ABB80E0089581E090E002C09D
S1130190880F991F6A95E2F7809597B3892387BBE7
S11301A080E0089581E090E002C0880F991F6A956D
S11301B0E2F7809594B3892384BB80E0089581E0BD
S11301C090E002C0880F991F6A95E2F7809591B379
S11301D0892381BB80E0089581E0089581E008953A
S11301E081E008954130C1F5813091F028F08230EA
S11301F0D9F0833029F16EC081E090E002C0880F0D
S1130200991F6A95E2F79BB3892B8BBB80E0089515
S113021081E090E002C0880F991F6A95E2F798B3D5
S1130220892B88BB80E0089581E090E002C0880FAC
S1130230991F6A95E2F795B3892B85BB80E00895F1
S113024081E090E002C0880F991F6A95E2F792B3AB
S1130250892B82BB80E0089541113EC0813099F022
S113026028F08230E9F0833041F138C081E090E039
S113027002C0880F991F6A95E2F780959BB3892382
S11302808BBB80E0089581E090E002C0880F991F45
S11302906A95E2F7809598B3892388BB80E0089536
S11302A081E090E002C0880F991F6A95E2F780957B
S11302B095B3892385BB80E0089581E090E002C076
S11302C0880F991F6A95E2F7809592B3892382BBC0
S11302D080E0089581E0089581E0089581E0089523
S11302E041E063E081E00E94F20085E08A95F1F745
S11302F0000040E063E081E00E94F200EFEEF0E0F5
S11303003197F1F700C000000895CF93C82F40E063
S113031061E081E00E94F20040E062E081E00E943E
S1130320F2008C2F807F8BBB0E947001C295C07F2E
S1130330CBBB0E947001EFEEF0E03197F1F700C003
S11303400000CF9108958FEF8ABB41E062E081E025
S11303500E94740041E061E081E00E94740041E089
S113036063E081E00E94740083E30E94850182E3DC
S11303700E94850188E20E9485018EE00E94850129
S113038081E00E9485018FE99FE00197F1F700C0A9
S1130390000086E00E948501E7ECF0E03197F1F778
S11303A000C000008EE00E948501E7ECF0E0319788
S11303B0F1F700C000000895CF93C82F41E061E039
S11303C081E00E94F20040E062E081E00E94F200DD
S11303D08C2F807F8BBB0E947001C295C07FCBBBEA
S11303E00E947001EFEEF0E03197F1F700C00000D9
S11303F0CF910895811105C080E8860F0E94850180
S11304000895813029F480EC860F0E9485010895B7
S113041082E00895EF92FF920F931F93CF93DF939F
S11304200097F9F0E22EF42ED62F8C01862F90E05F
S11304300896880F880F880F0E948501C0E007C0C6
S1130440F801EC0FF11D80810E94DC01CF5FC83000
S1130450B8F36E2D8F2D0E94FA018D2F0E94DC01BE
S113046001C081E0DF91CF911F910F91FF90EF9038
S10904700895F894FFCF8B
S11304760000000004041F000000000000001F0E1E
S1130486000000001C021E0006040C000404040004
S9030000FC
