S019000047726164756174696F6E50726F6A6563742E7372656326
S11300000C942A000C9447000C9447000C9447006D
S11300100C9447000C9447000C9447000C94470040
S11300200C9447000C9447000C9447000C94470030
S11300300C9447000C9447000C9447000C94470020
S11300400C9447000C9447000C9447000C94470010
S11300500C94470011241FBECFE5D8E0DEBFCDBF0E
S113006010E0A0E6B0E0E2E3F6E002C005900D92F5
S1130070AA37B107D9F720E0AAE7B0E001C01D9282
S1130080AB37B207E1F70E9449000C9417030C94B4
S113009000000E94C0028093600081E690E00E940C
S11300A0A101809360006AE770E081E690E00E941D
S11300B0EA018093600008C06AE770E081E690E09E
S11300C00E94EA018093600080917A008F3FA1F33F
S11300D00E94F902E8CF4130C1F5813091F028F057
S11300E08230D9F0833029F16EC081E090E002C003
S11300F0880F991F6A95E2F79AB3892B8ABB80E02F
S1130100089581E090E002C0880F991F6A95E2F794
S113011097B3892B87BB80E0089581E090E002C00B
S1130120880F991F6A95E2F794B3892B84BB80E00A
S1130130089581E090E002C0880F991F6A95E2F764
S113014091B3892B81BB80E0089541113EC0813079
S113015099F028F08230E9F0833041F138C081E031
S113016090E002C0880F991F6A95E2F780959AB3D0
S113017089238ABB80E0089581E090E002C0880F63
S1130180991F6A95E2F7809597B3892387BB80E02E
S1130190089581E090E002C0880F991F6A95E2F704
S11301A0809594B3892384BB80E0089581E090E036
S11301B002C0880F991F6A95E2F7809591B389234D
S11301C081BB80E0089581E0089581E0089581E095
S11301D008954130C1F5813091F028F08230D9F092
S11301E0833029F16EC081E090E002C0880F991F2E
S11301F06A95E2F79BB3892B8BBB80E0089581E07D
S113020090E002C0880F991F6A95E2F798B3892B92
S113021088BB80E0089581E090E002C0880F991FB8
S11302206A95E2F795B3892B85BB80E0089581E058
S113023090E002C0880F991F6A95E2F792B3892B68
S113024082BB80E0089541113EC0813099F028F0CE
S11302508230E9F0833041F138C081E090E002C09F
S1130260880F991F6A95E2F780959BB389238BBB0E
S113027080E0089581E090E002C0880F991F6A959C
S1130280E2F7809598B3892388BB80E0089581E0E4
S113029090E002C0880F991F6A95E2F7809595B3A4
S11302A0892385BB80E0089581E090E002C0880F37
S11302B0991F6A95E2F7809592B3892382BB80E007
S11302C0089581E0089581E0089581E008958130E2
S11302D091F028F08230D9F0833029F130C089B30D
S11302E090E002C0959587956A95E2F78170FA01CE
S11302F0808380E0089586B390E002C09595879549
S11303006A95E2F78170FA01808380E0089583B3EF
S113031090E002C0959587956A95E2F78170FA019D
S1130320808380E0089580B390E002C0959587951E
S11303306A95E2F78170FA01808380E0089581E094
S11303400895EF92FF921F93CF93DF930097D9F113
S1130350EC0110E080E018C07E01E10EF11CF70111
S11303606081669566956695677040E083E00E94BB
S11303706B00F7016081669566956695677041E04C
S113038083E00E94E9001F5F143030F310E018C0CE
S11303907E01E10EF11CF701648166956695669510
S11303A0677041E083E00E946B00F7016481669509
S11303B066956695677041E083E00E94E9001F5FDF
S11303C0143030F301C081E0DF91CF911F91FF9091
S11303D0EF9008957F928F929F92AF92BF92CF92A7
S11303E0DF92EF92FF920F931F93CF93DF93CDB7DA
S11303F0DEB761970FB6F894DEBF0FBECDBF8C0198
S113040090E1E9E6F0E0DE01129601900D929A95F2
S1130410E1F70115110509F469C06115710509F4C5
S113042067C05B01812C80E05CC0F801EF0DF11D19
S11304306481669566956695677041E083E00E94E5
S1130440E900F39401C0F12C23E02F1570F7C82CB8
S1130450D12CF801EC0DFD1D6481669566956695B9
S1130460677040E083E00E94E900912C36C0E92CDB
S1130470F12CF801EE0DFF1D608166956695669579
S11304806770AE014F5F5F4F83E00E9467019981FF
S1130490911122C0F701EE0FFF1FEE0FFF1F21E0A5
S11304A030E02C0F3D1FE20FF31FEC0DFD1D71809A
S11304B00EC0F801EE0DFF1D608166956695669588
S11304C06770AE014F5F5F4F83E00E9467019981BF
S11304D0992379F3F50170829394F3E0F91538F6D2
S11304E0839423E0281508F0AECF03C081E001C057
S11304F081E061960FB6F894DEBF0FBECDBFDF91E9
S1130500CF911F910F91FF90EF90DF90CF90BF900C
S1130510AF909F908F907F90089541E063E081E0D9
S11305200E94E90085E08A95F1F7000040E063E06D
S113053081E00E94E900EFEEF0E03197F1F700C0AE
S113054000000895CF93C82F40E061E081E00E944D
S1130550E90040E062E081E00E94E9008C2F807FA6
S11305608BBB0E948D02C295C07FCBBB0E948D02C3
S1130570EFEEF0E03197F1F700C00000CF9108955D
S11305808FEF8ABB41E062E081E00E946B0041E0B2
S113059061E081E00E946B0041E063E081E00E9441
S11305A06B0083E30E94A20282E30E94A20288E21B
S11305B00E94A2028EE00E94A20281E00E94A20296
S11305C08FE99FE00197F1F700C0000086E00E94E8
S11305D0A202E7ECF0E03197F1F700C000008EE0F2
S11305E00E94A202E7ECF0E03197F1F700C00000AE
S11305F00895CF93C82F41E061E081E00E94E900B3
S113060040E062E081E00E94E9008C2F807F8BBB98
S11306100E948D02C295C07FCBBB0E948D02EFEE7B
S1130620F0E03197F1F700C00000CF910895F894FD
S1050630FFCFF6
S113063202434B535B232B333B2F3938372A36354E
S10D0642342D3332312B3D302E00ED
S9030000FC
