:020000040800F2
:10000000005000202D010008C1010008C1010008B6
:10001000C1010008C1010008C10100080000000082
:10002000000000000000000000000000C101000806
:10003000C101000800000000C1010008C101000862
:10004000C1010008C1010008C1010008C101000888
:10005000C1010008C1010008C1010008C101000878
:10006000C1010008C1010008C1010008C101000868
:10007000C1010008C1010008C1010008C101000858
:10008000C1010008C1010008C1010008C101000848
:10009000C1010008C1010008C1010008C101000838
:1000A000C1010008C1010008C1010008C101000828
:1000B000C1010008C1010008C1010008C101000818
:1000C000C1010008C1010008C1010008C101000808
:1000D000C1010008C1010008C1010008C1010008F8
:1000E000C1010008C1010008C1010008C1010008E8
:1000F000C1010008C1010008C1010008C1010008D8
:10010000C1010008C1010008C1010008C1010008C7
:10011000C1010008C1010008C1010008C1010008B7
:0C012000C1010008C1010008C101000875
:10012C0080B586B000AF00237B6000237B61002389
:10013C003B611B4A1B4BD31A9B107B601A4B7B6198
:10014C00184B3B610023FB600AE07A69131D7B614D
:10015C003B69191D396112681A60FB680133FB6039
:10016C00FA687B689A42F0D3104A114BD31A9B1051
:10017C007B600F4B3B610023BB6007E03B691A1DA2
:10018C003A6100221A60BB680133BB60BA687B68B5
:10019C009A42F3D300F014F800BF1837BD4680BD67
:1001AC000400002000000020F401000808000020DA
:1001BC000400002080B400AF00BFBD4680BC704777
:1001CC0080B400AF054B1B680133044A1360044B29
:1001DC001B680133024A1360F4E700BF04000020DF
:0401EC0000000020EF
:0401F000005000209B
:0401F4000A000000FD
:040000050800012CC2
:00000001FF
