:020000040800F2
:10000000005000202D0100083901000839010008C6
:10001000390100083901000839010008000000001A
:10002000000000000000000000000000390100088E
:1000300039010008000000003901000839010008FA
:1000400039010008390100083901000839010008A8
:100050003901000839010008390100083901000898
:100060003901000839010008390100083901000888
:100070003901000839010008390100083901000878
:100080003901000839010008390100083901000868
:100090003901000839010008390100083901000858
:1000A0003901000839010008390100083901000848
:1000B0003901000839010008390100083901000838
:1000C0003901000839010008390100083901000828
:1000D0003901000839010008390100083901000818
:1000E0003901000839010008390100083901000808
:1000F00039010008390100083901000839010008F8
:1001000039010008390100083901000839010008E7
:1001100039010008390100083901000839010008D7
:0C0120003901000839010008390100080D
:10012C0080B400AF00BFBD4680BC704780B400AF48
:10013C0000BFBD4680BC704780B400AFFEE7000036
:04014C00005000203F
:040000050800012CC2
:00000001FF
